:100000000C9478020C9495020C9495020C94950231
:100010000C9495020C9495020C9495020C94950204
:100020000C9495020C9495020C9495020C949502F4
:100030000C9495020C9495020C9495020C949502E4
:100040000C9495020C9495020C9495020C949502D4
:100050000C94950246696C6520646F6573206E6F21
:1000600074206578697374210044656C6574696EE9
:10007000672E2E0046696C652064656C6574656446
:1000800021002020200046494C450020202000442B
:10009000495200524F4F54004572726F7220696E80
:1000A0002067657474696E6720636C75737465721C
:1000B000004572726F7220696E2067657474696E94
:1000C0006720636C757374657200496E76616C6944
:1000D000642066696C654E616D652E2E00204E6F42
:1000E000206672656520636C7573746572210020EB
:1000F0004E6F206672656520636C7573746572213E
:1001000000456E64206F6620436C757374657220C1
:10011000436861696E004572726F7220696E206774
:10012000657474696E6720636C75737465720048DA
:100130005454502F312E3020323030204F4B0D0A86
:10014000436F6E74656E742D547970653A207465D2
:1001500078742F68746D6C0D0A507261676D613A26
:10016000206E6F2D63616368650D0A0D0A003C7097
:1001700072653E003C63656E7465723E3C703E3C49
:1001800068313E2057656220536572766572204162
:1001900070706C69636174696F6E20666F72204461
:1001A0006961676E6F73746963204465766963651E
:1001B0007320696E204675656C2043656C6C205316
:1001C000797374656D732056312E30207C4C454E0A
:1001D00041204F564755203C2F68313E3C2F703E02
:1001E0003C2F68323E202020202020202020003C70
:1001F0006C6566743E3C7374796C653E626F6479BD
:100200007B6261636B67726F756E642D636F6C6F79
:10021000723A677265793B666F6E743A313070740A
:100220002F313270742066616E746173793B3C2F9C
:100230007374796C653E3C68323E0053656E736F33
:100240007273206F6E20576562203C2F68323E200B
:100250002020003C6C6566743E3C68323E437572FB
:1002600072656E742054656D706572617475726527
:10027000206973203D2033362043203C2F68323ED6
:10028000202020003C6C6566743E3C68323E43751D
:100290007272656E742044656E7369747920697337
:1002A000203D20342E31352041203C2F68323E2025
:1002B0002020003C6C6566743E3C68323E566F6C94
:1002C00074616765206973203D2034352056203CD9
:1002D0002F68323E2020202020003C68723E3C6285
:1002E000723E3C2F666F726D3E20446576656C6F82
:1002F000706564206279204C454E412D4F5647551C
:10030000202020202076657273696F6E20312E3098
:10031000003C68323E000A0D0A0D2A2A2A2A2A2A9F
:100320002A2A2A2A2A2A2A2A2A2A2A2A2A2A2A2A2D
:100330002A2A2A2A2A2A2A2A2A2A2A2A2A2A2A2A1D
:100340002A2A2A2A2A2A2A2A2A2A2A2A2A2A000A57
:100350000D2020202020202020206D6963726F5303
:100360004420446174616C6F67676572202D204C76
:10037000454E41204F56475520000A0D2A2A2A2A69
:100380002A2A2A2A2A2A2A2A2A2A2A2A2A2A2A2ACD
:100390002A2A2A2A2A2A2A2A2A2A2A2A2A2A2A2ABD
:1003A0002A2A2A2A2A2A2A2A2A2A2A2A2A2A2A2AAD
:1003B0000A0D0053442063617264206E6F742064E0
:1003C000657465637465642E2E0043617264204910
:1003D0006E697469616C697A6174696F6E206661B7
:1003E000696C65642E2E005374616E6461726420C2
:1003F0004361706163697479204361726420285697
:10040000657220312E7829204465746563746564B3
:1004100021004869676820436170616369747920CD
:10042000436172642044657465637465642100539C
:1004300074616E6461726420436170616369747990
:100440002043617264202856657220322E7829205C
:1004500044657465637465642100556E6B6E6F77D7
:100460006E20534420436172642044657465637454
:10047000656421000A0D4641543332206E6F7420AA
:10048000666F756E6421003C68313E323030204F1B
:100490004B3C2F68313E00485454502F312E3020B1
:1004A00034303120556E617574686F72697A656495
:1004B0000D0A436F6E74656E742D547970653A2021
:1004C000746578742F68746D6C0D0A0D0A3C683180
:1004D0003E34303120556E617574686F72697A658B
:1004E000643C2F68313E0000010800060400010052
:1004F00011241FBECFE5D8E0DEBFCDBF10E0A0E6DF
:10050000B0E0EEEEF0E302C005900D92A23DB1071F
:10051000D9F726E0A2EDB0E001C01D92A534B207E4
:10052000E1F70E940A100C9475180C940000C4980E
:10053000962F9F71892B8FB9779BFECF1FB8779B22
:10054000FECF66231CF41FB8779BFECFC49A8FB1F1
:100550000895C4986F71862B8FB9779BFECF4FB9E2
:10056000779BFECFC49A0895FB01C4982AE32FB964
:10057000779BFECF009751F08E0F9F1F1FB8779B80
:10058000FECF2FB12193E817F907C1F71082C49A63
:100590000895FB01C4982AE72FB9779BFECF07C0C7
:1005A0008E0F9F1F21912FB9779BFECF03C000971D
:1005B000B9F703C0E817F907A9F7C49A08951F937C
:1005C000CF93DF93182F1076C12FD0E02091D20067
:1005D00030E0C217D307B1F043E06FE180EA0E9438
:1005E000A902AE015595479555954795559547955F
:1005F00055954795559547956FE180E80E94A9026A
:100600001093D200DF91CF911F910895CF93C82FFF
:100610000E94DF026C2F80E00E949702CF91089524
:10062000CF93DF93C82FD62F0E94DF024D2F6C2F60
:1006300080E40E94A902DF91CF910895682F84ED94
:100640000E94100361E082ED0E94100380E58A950C
:10065000F1F78AEE0E94060380FDFBCF60E082ED99
:100660000E94100389ED0E94060390E00895CF9345
:10067000DF93D62FC72F682F84ED0E9410036D2FB4
:1006800086ED0E9410036C2F87ED0E94100303C0BB
:1006900080E58A95F1F78AEE0E94060380FDF8CF87
:1006A000DF91CF910895682F677085E70E9410034E
:1006B0000895CF93DF93EC01BC9AC49A87B3806A04
:1006C00087BBBE98C598C79880E58DB9709A4FEFE3
:1006D00060E08FEF0E94A9028DEC8A95F1F71092ED
:1006E000D4001092D30060E088E00E94100360E024
:1006F00089E00E94100360E08CE00E94100360E03B
:100700008DE00E9410036EEF8AE00E94100369E101
:100710008BE00E9410036FEF84E00E94100369E1F8
:1007200085E00E9410036FEF86E00E9410036FE1E6
:1007300087E00E94100360EB88E30E9410036FE3E0
:1007400088E20E94100360E389E20E94100369EFCF
:1007500080E30E94100367EF81E30E9410036DE0C5
:1007600080EC0E94100360E081EC0E94100342E3E1
:1007700062EC80E80E94A90262E186EC0E9410030C
:100780006CE087EC0E94100362E184EC0E9410038D
:100790006CED8AEC0E94100365E08BEC0E94100364
:1007A000688184EE0E941003698185EE0E94100327
:1007B0006A8182EE0E9410036B8183EE0E94100317
:1007C0006C8180EE0E9410036D8181EE0E94100307
:1007D00060E071E080E10E9437038FE10E94DF0258
:1007E00040EC6BE180E80E94A90244E06FE180E800
:1007F0000E94A902DF91CF91089581E10E941E031A
:1008000021E0892B09F420E0822F08950F931F9394
:10081000CF93DF93EC018B010FC08CE10E940603A4
:1008200081FF0AC040E86FE180E80E94A90240E829
:100830006FE180EA0E94A9026FE180E00E949702C6
:1008400083FDEBCF6FEF82E00E94100369E183E04C
:100850000E9410036C2F615086E00E941003CE01AD
:100860008150964E692F87E00E94100340E060E0BF
:100870008AE70E94A902B801CE010E94C90248E09D
:100880006FE180E80E94A902DF91CF911F910F9143
:100890000895AF92BF92CF92DF92EF92FF920F93A3
:1008A0001F93CF93DF93EC017B0189E30E94060342
:1008B000882309F46FC06091D3001091D40080E0C8
:1008C0000E941003612F81E00E94100360E08AE320
:1008D0000E949702D82E60E08AE30E949702182FA8
:1008E00000E00D291093D4000093D30060E08AE368
:1008F0000E949702B82E60E08AE30E949702A82E19
:1009000060E08AE30E949702C82ED12C60E08AE35F
:100910000E949702382F20E02C293D2927FF11C083
:10092000AE01415051093A2D20E0E901CB2924972D
:100930004C175D0708F4EA01B701CE010E94B4022A
:1009400002C0C0E0D0E0F02E602F8CE00E941003C7
:10095000612F8DE00E941003015011090F3F89E1C2
:10096000180748F06EEF8CE00E94100369E18DE0FB
:100970000E94100309C06F2D61508CE00E9410038B
:10098000612F8DE00E94100340E46EE180E80E9438
:10099000A90202C0C0E0D0E08C2F9D2FDF91CF9143
:1009A0001F910F91FF90EF90DF90CF90BF90AF908D
:1009B0000895CF92DF92EF92FF920F931F93A09131
:1009C0003605B0913705C0901E03D0901F03E0900C
:1009D0002003F09021039B01AC0122503109410911
:1009E00051090E944F188B019C010C0D1D1D2E1DDD
:1009F0003F1D602F712F822F932F1F910F91FF901A
:100A0000EF90DF90CF9008953F924F925F926F9258
:100A10007F928F929F92AF92BF92CF92DF92EF928E
:100A2000FF920F931F93CF93DF93342E2801390148
:100A300040914105509142054B015C01880C991C85
:100A4000AA1CBB1C880C991CAA1CBB1C2091260349
:100A500030912703C0903805D0903905E0903A05D1
:100A6000F0903B05C40ED51EE11CF11C40E050E0A7
:100A7000C501B4010E942118C20ED31EE41EF51E4A
:100A8000209126033091270340E050E0C501B401D6
:100A90000E942118EB011AE0C701B6010E940D1750
:100AA000882311F01150C1F7CA5CDC4F311007C028
:100AB000C880D980EA80FB808FE0F8220BC0488292
:100AC00059826A827B82C701B6010E943E17C12CFF
:100AD000D12C76016C2D7D2D8E2D9F2DDF91CF9108
:100AE0001F910F91FF90EF90DF90CF90BF90AF904C
:100AF0009F908F907F906F905F904F903F90089560
:100B0000CF92DF92EF92FF920F931F93082F162F31
:100B100069017A018091380590913905A0913A05D3
:100B2000B0913B05BC01CD016F5F7F4F8F4F9F4F51
:100B30000E940D174091360350913703609138039E
:100B400070913903423552456146714409F058C0ED
:100B500080911A0590911B05A0911C05B0911D056F
:100B600082379247A144B14609F04EC080913205C8
:100B700090913305A0913405B09135050097A545B6
:100B8000BA4A09F045C0111114C0013049F400916E
:100B90001E0510911F0520912005309121053BC0B5
:100BA00000912205109123052091240530912505FF
:100BB00032C0013049F4C0921E05D0921F05E09268
:100BC0002005F092210508C0C0922205D09223058D
:100BD000E0922405F0922505809138059091390521
:100BE000A0913A05B0913B05BC01CD016F5F7F4FED
:100BF0008F4F9F4F0E943E170FEF1FEF98010BC0C2
:100C00000FEF1FEF980107C00FEF1FEF980103C010
:100C10000FEF1FEF9801602F712F822F932F1F91DD
:100C20000F91FF90EF90DF90CF900895CF92DF92D9
:100C3000EF92FF920F931F93CF93DF93109238059B
:100C40001092390510923A0510923B0560E070E071
:100C5000CB010E940D1780913603893E19F18B3E1E
:100C600009F1809134059091350585359A4A09F04E
:100C7000ABC06091FC047091FD048091FE049091E2
:100C8000FF04609338057093390580933A0590937B
:100C90003B050E940D1780913603893E19F08B3E6B
:100CA00009F094C0809141039091420390932703EF
:100CB000809326038091430390E0909337058093BF
:100CC0003605E0914403F0914503F0934205E0932B
:100CD00041058091620390916303A0916403B091F8
:100CE000650380932C0390932D03A0932E03B09360
:100CF0002F03C0914105D0914205A0914603209158
:100D00005A0330915B0340915C0350915D03B0E066
:100D10000E944F18009152031091530320915403E5
:100D2000309155030C0F1D1F211D311D060F171F7C
:100D3000281F391F00931E0310931F0320932003C5
:100D400030932103409136055091370500915603A9
:100D50001091570320915803309159030E1B1F0B1C
:100D60002109310968017901C61AD70AE80AF90A86
:100D7000C701B6019A0140E050E00E94211820937B
:100D800028033093290340932A0350932B0320E038
:100D900030E0A90160E081E00E9480050091280315
:100DA0001091290320912A0330912B03061717076E
:100DB0002807390720F41092AC0580E008C081E0D4
:100DC0008093AC0580E003C081E001C081E0DF9149
:100DD000CF911F910F91FF90EF90DF90CF900895EA
:100DE000CF93DF93CDB7DEB72B970FB6F894DEBF66
:100DF0000FBECDBFFC0120812E3279F0DC011196AF
:100E000041E02D912E3221F04F5F4C30D1F709C0D7
:100E1000493038F441110BC001C040E0242F30E2CA
:100E200018C08AEC90E00E94EE1781E057C0FC01E8
:100E3000DE0111969C012F5F3F4F542F5150250F1B
:100E4000311D51915D93E217F307D9F7483030F324
:100E50000AC0A1E0B0E0AC0FBD1FA20FB11D3C93D2
:100E60002F5F2830B0F34F5F28E0DC01A40FB11DE5
:100E70003C91311103C02B3050F015C0E1E0F0E09F
:100E8000EC0FFD1FE20FF11D30834F5F0CC030E20D
:100E9000E1E0F0E0EC0FFD1FE20FF11D30832F5F6A
:100EA0002B30B1F703C02F5F2B30F8F2DE01119623
:100EB0009E01245F3F4FFD014081542F51565A310E
:100EC00010F4405240833196E217F307A9F7FC0172
:100ED0008D9181932A173B07D9F780E02B960FB6A7
:100EE000F894DEBF0FBECDBFDF91CF9108954F9232
:100EF0005F926F927F928F929F92AF92BF92CF92AA
:100F0000DF92EF92FF921F93CF93DF936894CC24EC
:100F1000C7F8DD24DA94ED2CFD2CC622D722E82276
:100F2000F9228091280390912903A0912A03B0917E
:100F30002B03C816D906EA06FB0608F06EC0460168
:100F40005701880C991CAA1CBB1C880C991CAA1C54
:100F5000BB1CC6E3D3E011E08091410590914205AE
:100F60002091260330912703409038055090390591
:100F700060903A0570903B05480E591E611C711C2B
:100F800040E050E0C501B4010E942118C301B20144
:100F9000620F731F841F951F0E940D17888199810E
:100FA000AA81BB81BF70892B8A2B8B2B99F0212FB3
:100FB000E22FF0E0EE0FFF1FEE0FFF1FEA5CFC4F89
:100FC00080819181A281B381BF70892B8A2B8B2B69
:100FD00039F401C020E0C20ED11CE11CF11C20C07C
:100FE0002F5F32F720E8C20ED11CE11CF11C80916A
:100FF000280390912903A0912A03B0912B0322E0AA
:10100000920EA11CB11CC816D906EA06FB0608F40C
:10101000A3CFC12CD12C760103C0C12CD12C7601D9
:101020006C2D7D2D8E2D9F2DDF91CF911F91FF90E7
:10103000EF90DF90CF90BF90AF909F908F907F9078
:101040006F905F904F9008959F92AF92BF92CF9212
:10105000DF92EF92FF920F931F93CF93DF93CDB761
:10106000DEB764970FB6F894DEBF0FBECDBF982EE3
:10107000CB01BA0124E1E1E8F0E0DE011196019034
:101080000D922A95E1F70F2EFCE0BF2EF02D0F2ECA
:10109000FCE2AF2EF02D0F2EFAE0CF2ED12CE12C5A
:1010A000F12CF02D25E0B21619F0E9E0BE1205C0D2
:1010B000FE01EB0DF11DA082BA948E010B0D111DE6
:1010C000A70196010E942118DC01CB018063F80181
:1010D0008083622F732F842F952F611571058105F1
:1010E000910511F0BA94F1F6F1E09F1202C08BE481
:1010F0008E87CE0101960E94021864960FB6F8946E
:10110000DEBF0FBECDBFDF91CF911F910F91FF903A
:10111000EF90DF90CF90BF90AF909F900895CF92C7
:10112000DF92EF92FF92CF93C82FC12CD12C760182
:10113000CA94D394C422D522E622F722CD28CE2801
:10114000CF2861F4DB01CA01072E79E0B695A79597
:10115000979587957A95D1F7702D0EC0DB01CA015E
:10116000072E79E0B695A795979587957A95D1F74B
:10117000702D0196A11DB11D0F2EF7E0CF2ED12CA1
:10118000E12CF12CF02DC822D922EA22FB22CD2815
:10119000CE28CF2859F46C017D01689412F8F6949A
:1011A000E794D794C7941694D1F70FC06C017D01D2
:1011B000689412F8F694E794D794C7941694D1F7EC
:1011C0008FEFC81AD80AE80AF80A8091AC0588237C
:1011D000D1F020E030E0A90160E081E00E948005CC
:1011E000C11107C09B01AC012C0D3D1D4E1D5F1DA3
:1011F00006C09B01AC012C193D094E095F0961E055
:1012000081E00E948005CF91FF90EF90DF90CF901A
:1012100008952F923F924F925F926F927F928F929A
:101220009F92AF92BF92CF92DF92EF92FF920F9375
:101230001F93CF93DF93CDB7DEB762970FB6F894C5
:10124000DEBF0FBECDBF88877B836A8380912C036E
:1012500090912D03A0912E03B0912F038D879E872F
:10126000AF87B88B98859150998344244394512C2F
:101270003B01A1E0B0E06A0E7B1E13016D857E8507
:101280008F8598890E94D9046C837D838E839F8388
:101290008091360590913705892B09F485C1C12CC1
:1012A000D12C76010F2EF6E36F2EF3E07F2EF02D7A
:1012B0008C809D80AE80BF808C0C9D1CAE1CBF1CA2
:1012C000C501B4010E940D17809126039091270358
:1012D000892B09F458C1F30180818823A1F000E033
:1012E00010E07A8A698AC986DA86EB86FC86CA802B
:1012F000DB8014C098012A5C3C4F3A8B298BD901C2
:101300008C9181110BC0B885B23009F06EC184E5B3
:1013100090E00E94EE17A12CB12C6CC1853E09F41F
:1013200024C1E989FA8983858F3009F41EC1F981C6
:10133000F23008F0CFC0A989BA899C91F60180816A
:10134000981313C11196F101842D49895A892D9161
:101350009191291309C08F5F8B30C9F77501640122
:101360005A0118018A010AC05A8B498B8B3009F047
:10137000FCC0750164015A0118018A01F885F13039
:10138000D9F5C092AD05D092AE05E092AF05F092CE
:10139000B005C101A0E0B0E0809318039093190359
:1013A000A0931A03B0931B03D80154968D919C917E
:1013B0005597A0E0B0E0DC0199278827F801428D1D
:1013C000538D60E070E0842B952BA62BB72B809378
:1013D000430590934405A0934505B0934605848D3D
:1013E000958DA68DB78D8093220390932303A093B0
:1013F0002403B0932503FEC085E990E00E94DB172B
:1014000089E690E00E94EE1785E990E00E94DB17E4
:1014100085E990E00E94DB17D80154968D909C904E
:101420005597A12CB12C5401992488245A968D915A
:101430009C915B97A0E0B0E0882A992AAA2ABB2A4F
:1014400085EEF8018083C701B6010E943E17D801DE
:101450005C964D915D916D917C915F9780E00E94CB
:101460008F0820E030E0A90160E082E00E94800562
:1014700086169706A806B90630F4A501940161E026
:1014800082E00E94800500E010E0980140E0C50184
:10149000B4010E940405E62EF72EC82ED92E00E0D6
:1014A00010E0980141E0C501B4010E9404058E2CB2
:1014B0009F2CAC2CBD2CB7EF8B16BFEF9B06AB0659
:1014C000BFE0BB0600F384E790E00E94EE17A12C7A
:1014D000B12C90C085E990E00E94DB17C801042D73
:1014E000152D7C0102C01F5F0F5F183059F480E298
:1014F0000E94EA17E989FA89E10FF11D80810E94B3
:10150000EA17F1CFE989FA89E10FF11D80810E9484
:10151000EA170B3040F3870182E890E00E94EE1753
:10152000A989BA891B968C918031A1F08830B9F0D5
:1015300086E890E00E94EE178BE890E00E94EE179C
:10154000E989FA89448D558D668D778D852D0E94A8
:1015500024080BC02FE830E0822F932F04C0A3E9AA
:10156000B0E08A2F9B2F0E94EE17005E1F4F8091E4
:101570002603909127030817190708F4BBCEC984E6
:10158000DA84EB84FC84BFEFCB1ADB0AEB0AFB0A9C
:101590008091360590913705A0E0B0E0C816D906D5
:1015A000EA06FB0608F484CE00E010E0980140E073
:1015B0006D857E858F8598890E9404056D877E875D
:1015C0008F87988B673FEFEF7E078E07EFE09E07D0
:1015D00078F4672B682B692B09F050CE88E990E0EE
:1015E0000E94EE17A12CB12C05C0A12CB12C02C079
:1015F000A12CB12C8A2D9B2D62960FB6F894DEBFDC
:101600000FBECDBFDF91CF911F910F91FF90EF9053
:10161000DF90CF90BF90AF909F908F907F906F9012
:101620005F904F903F902F9008953F924F925F921E
:101630006F927F928F929F92AF92BF92CF92DF92E2
:10164000EF92FF920F931F93CF93DF93CDB7DEB747
:101650002C970FB6F894DEBF0FBECDBF182F7B01BD
:10166000CB010E94F0068111ADC0B70181E00E945C
:101670000909009731F481E0112309F4A8C080E042
:10168000A6C0113009F4A0C0DC0154964D905C90C6
:101690005597612C712C3201552444245A964D9152
:1016A0005C915B9760E070E093018201042B152B45
:1016B000262B372B09871A872B873C875C96CD9082
:1016C000DD90ED90FC905F9785E990E00E94DB173C
:1016D00085E990E00E94DB1719821A821B821C8226
:1016E000312C69857A858B859C850E94D9046D8310
:1016F0007E838F8398878091360590913705892B5B
:1017000009F447C0132D04C049835A836B837C833B
:101710006D817E818F819885610F711D811D911D65
:101720000E940D1749805A806B807C8022E0520E07
:10173000611C711C89809A80AB80BC80F401898116
:101740009A81E81BF90BEA5CFC4F80810E94EA1742
:10175000B501A4014F5F5F4F6F4F7F4F8C149D0405
:10176000AE04BF0498F54A015B01441555056605B2
:10177000770521F71F5F8091360590913705212F5E
:1017800030E02817390708F4BFCF49835A836B83A9
:101790007C8300E010E09801432D69857A858B8574
:1017A0009C850E94040569877A878B879C87672BB5
:1017B000682B692B09F095CF81EB90E00E94EE1722
:1017C00080E005C082E003C081E001C080E02C968B
:1017D0000FB6F894DEBF0FBECDBFDF91CF911F9142
:1017E0000F91FF90EF90DF90CF90BF90AF909F90C0
:1017F0008F907F906F905F904F903F9008952F92C1
:101800003F924F925F926F927F928F929F92AF9290
:10181000BF92CF92DF92EF92FF920F931F93CF93DD
:10182000DF93CDB7DEB760970FB6F894DEBF0FBE7B
:10183000CDBF8D839E83682F792F81E00E94150B89
:10184000813009F052C0C0904305D0904405E0902B
:101850004505F0904605812C912C540100E010E0E4
:10186000980140E0C701B6010E9404056F3F2FEFC9
:10187000720782072FE0920741F0AFEF8A1A9A0AA7
:10188000AA0ABA0A6B017C01E9CFA0913605B09192
:1018900037052091260330912703E0912603F0912C
:1018A00027030E9443189B01AC01C501B4010E94AB
:1018B00011180091220310912303209124033091E9
:1018C000250348015901861A970AA80AB90AC501D1
:1018D000B4019F0140E050E00E9421181E861D8641
:1018E0001C861B8681E08F8347C0823009F483C247
:1018F00020E030E0A90160E082E00E9480050091D4
:1019000028031091290320912A0330912B030617F5
:1019100017072807390740F460912C0370912D03B5
:1019200080912E0390912F030E9477076B017C0119
:10193000611571058105910551F485E990E00E94DA
:10194000DB178DED90E00E94EE1781E05DC20FEF96
:101950001FEF2FEF3FE041E00E940405FC86EB867D
:10196000DE86CD8610922203109223031092240368
:101970001092250320E01F828F8110E0212C422E3F
:10198000512C612C712C2983312C00E01F87088B8E
:10199000882371F1C701B6010E94D904DC01CB0193
:1019A000840D951DA61DB71D8093320390933303BC
:1019B000A0933403B09335036091320370913303E5
:1019C00080913403909135030E940D1720912603D6
:1019D0003091270340E050E060912203709123038F
:1019E00080912403909125030E94211809810FC042
:1019F000C701B6010E94D904609332037093330388
:101A0000809334039093350360E070E0022DBF842F
:101A1000A888EB2DF0E0E95BFA4F1081B394FB014D
:101A2000EA5CFC4F10836F5F7F4F8091220390919F
:101A30002303A0912403B09125030196A11DB11D9C
:101A40008093220390932303A0932403B093250350
:101A5000611592E0790748F1609132037091330388
:101A600080913403909135030E943E170F5F80915F
:101A7000360590913705202F30E028173907E1F01F
:101A80008091320390913303A0913403B0913503D8
:101A90000196A11DB11D8093320390933303A0934F
:101AA0003403B0933503632D7A2D1A3059F0A3E631
:101AB000AB1508F0AECF06C0BF86A88A8B2D1A30B2
:101AC00031F49FC16115B2E07B0720F00DC0843670
:101AD00040F197C1FB01EA5CFC4F10826F5F7F4FC2
:101AE0006115E2E07E07B0F3609132037091330339
:101AF00080913403909135030E943E17A70196010F
:101B000061E082E00E94800510921D0310921C0388
:101B100010923103109230038F80882009F46FC037
:101B200029C0C701B6010E9477074B015C0161150E
:101B300071058105910551F485E990E00E94DB175C
:101B40008FEE90E00E94EE1781E05EC18B019C0158
:101B500041E0C701B6010E9404050FEF1FEF2FEF10
:101B60003FE041E0C501B4010E940405822D7501EA
:101B700064010ECF6091AD057091AE058091AF0507
:101B80009091B0050E940D17E0911803F091190390
:101B9000EA5CFC4F138A128A8091300390913103E2
:101BA000978B868B80911C0390911D03918F808F62
:101BB0008091220390912303A0912403B0912503E7
:101BC000448D558D668D778D6C017D01C41AD50AC3
:101BD000E60AF70A848F958FA68FB78F6091AD05BF
:101BE0007091AE058091AF059091B0050E943E17AF
:101BF000B701A60181E00E948F0880E005C14090F6
:101C00002C0350902D0360902E0370902F0310E052
:101C10006894332435F80F2EFBE02F2EF02D198316
:101C20004F82588669867A864D845E846B847C8474
:101C30006F81788589859A850E94D9044B015C0162
:101C40008091360590913705892B09F48AC010E000
:101C500029812B8789829A82AB82BC82A12E9D80AA
:101C6000BE80C980DA80EB80FC80CA0CD11CE11CEC
:101C7000F11CC701B6010E940D17809126039091B7
:101C80002703892B09F460C08B848110B6C0E6E37A
:101C9000F3E000E010E0282D05C0F801EA5CFC4FFD
:101CA0002111ADC08081882319F0853E09F041C023
:101CB000A92DBB2D9F01822DAF019D91F90191931B
:101CC0009F018150D1F7FA01338614861586209141
:101CD0003003309131033787268780911C03909120
:101CE0001D03918B808B138A128A378B268B918FE1
:101CF000808F758A648A538E428E809122039091E0
:101D00002303A0912403B0912503848F958FA68F80
:101D1000B78FC701B6010E943E1740912203509130
:101D20002303609124037091250381E00E948F08B2
:101D300021E0005E1F4F8091260390912703081732
:101D4000190708F4AACF2B87A394809136059091A8
:101D500037052A2D30E02817390708F482CF8B8405
:101D6000898200E010E0980140E06F8178858985E4
:101D70009A850E9404056B017C01673F2FEF720773
:101D800082072FE0920740F18FEFC816D806E806C9
:101D90008FE0F806D9F46F81788589859A850E944D
:101DA00077076B017C018B019C0141E06F81788595
:101DB00089859A850E9404050FEF1FEF2FEF3FE002
:101DC00041E0C701B6010E94040506C081E091E030
:101DD0000E94EE1781E018C0CF82D886E986FA8685
:101DE000CD28CE28CF2809F023CF86E191E00E94AC
:101DF000EE1781E009C081E007C080E005C080E007
:101E000003C060E070E066CE60960FB6F894DEBF67
:101E10000FBECDBFDF91CF911F910F91FF90EF903B
:101E2000DF90CF90BF90AF909F908F907F906F90FA
:101E30005F904F903F902F9008954FE251E060E007
:101E400070E085ED90E00E9473130895CF93DF93C7
:101E5000EC010E941D0F4EE651E0BC01CE010E9434
:101E6000731344E751E0BC01CE010E9473134FEE9F
:101E700051E0BC01CE010E9473134BE352E0BC0160
:101E8000CE010E94731343E552E0BC01CE010E94D3
:101E9000731344E852E0BC01CE010E94731343EB7C
:101EA00052E0BC01CE010E9473134AED52E0BC0126
:101EB000CE010E94731341E153E0BC01CE010E94A8
:101EC000731340E650E0BC01CE010E94A713DF91DE
:101ED000CF9108951BBA83E08ABB15BA14BA12BA1F
:101EE00011BA0895F8940E946A0F0E94981760E84A
:101EF00075E280E090E00E94B8170895D99A2FE12A
:101F000081EA97E0215080409040E1F700C0000056
:101F1000D9982FE181EA97E0215080409040E1F785
:101F200000C00000EBCF1092320680E380933106B0
:101F3000809330068AE380932F0692E390932E06D7
:101F400090932D0680932C0684E380932B0681E3E7
:101F500080932A0680E008951092410684E38093DE
:101F6000400681E380933F0630E330933E0692E3E0
:101F700090933D062FE220933C0698E390933B0616
:101F800030933A06209339069093380680933706AB
:101F900080E0089583E48093D90580E38093D80599
:101FA0008093D7058EE28093D60586E38093D5058E
:101FB00083E38093D4058BE28093D305089586E56F
:101FC0008093260680E380932506809324068EE284
:101FD0008093230685E38093220684E38093210681
:101FE0008BE280932006089581E48093CC0580E302
:101FF0008093CB0585E38093CA0581E38093C9056F
:102000008EE28093C80584E38093C7058BE28093BA
:10201000C6050895CF93DF93CDB7DEB72D970FB6E2
:10202000F894DEBF0FBECDBF10E0812F8A95F1F787
:10203000B99AC19A60E875E280E090E00E94B81712
:1020400083E790E00E94590382E00E9453031A95AF
:10205000F1F766E774E084E10E94370369E770E016
:1020600083E790E00E94391480E590E00E944B14D1
:1020700088E990E00E94DB1785E990E00E94DB1779
:102080002FE880ED93E0215080409040E1F700C0C0
:1020900000000E94720FD89AD99886E193E00E94BE
:1020A000EE178FE493E00E94EE178AE793E00E9418
:1020B000EE171092AB051AE00E946F16882309F400
:1020C0005BC11150C9F764C183EB93E00E94EE1726
:1020D00006C0823021F48AEC93E00E94EE170E9441
:1020E0007E0F87EE93E00E94EE170EC082E194E02F
:1020F0000E94EE1709C08FE294E00E94EE1704C020
:102100008AE594E00E94EE170E941606882331F0BB
:1021100084E794E00E94EE170E947E0FE1E1FAE767
:102120003197F1F700C000008E01075F1F4F212C8F
:102130000F2EF7E38F2EF6E09F2EF02DC12CD12C21
:102140000F2EF1E54F2EF5E05F2EF02D0F2EFBE365
:102150003F2EF02D0F2EFAE2AF2EF6E0BF2EF02D1F
:102160000F2EFBE06F2E712CF02DD99A0E94AC0F30
:1021700081110E947E0FFE013196822DA82FB0E0C2
:10218000A95CB94F9C919193982F9F5F923011F069
:10219000953011F48E5F01C0892FE017F10771F7B8
:1021A000FEE2F98723E42A8783E58B8796E59C87FF
:1021B0000E94930F81110E947E0FF401C6012191AC
:1021C000DC01A95BBA4F2C9301968A309105B9F7CF
:1021D000F2013082F501C3012191DC01A95BBA4F04
:1021E0002C93019683319105B9F730925A050E94DC
:1021F000CA0FE3EDF5E084E190E02191DC01A95BF9
:10220000BA4F2C9301968B319105B9F78DE08093ED
:1022100062058AE0809363050E94DF0FE0E2F6E04A
:102220008CE190E02191DC01A95BBA4F2C930196DF
:1022300083329105B9F78DE080936A058AE0809337
:102240006B050E94F40FE6ECF5E084E290E021914A
:10225000DC01A95BBA4F2C9301968B329105B9F73B
:102260008DE0809372058AE080937305CE0101961C
:102270000E94FF0BF82E87E495E00E94DB17F11017
:102280000E947E0F84E690E0E1E1FAE73197F1F7F2
:1022900000C00000D9980197B9F765ED70E086E2BB
:1022A00092E00E944904BC0185ED90E00E940D156A
:1022B0007C019093290680932806009741F40E94A0
:1022C000FD03882311F0C198E8CFC19AE6CFBC0185
:1022D0006B527F4F44E050E089EC90E00E94671819
:1022E000282F392F232B91F00E941D0F9093290640
:1022F0008093280647E854E0BC0185ED90E00E94F9
:102300007313909329068093280621C0B701675262
:102310007F4F42E050E08EEC90E00E946718282F3B
:10232000392F232B49F485ED90E00E94260F9093DE
:102330002906809328060BC047E954E0B60185EDD5
:1023400090E00E9473139093290680932806609171
:1023500028067091290685ED90E00E94891485ED8C
:1023600090E00E94B413609113067091140685EDFD
:1023700090E00E941414F9CE8091AB05823009F4EC
:10238000B5CE833009F4B7CE813009F0B9CEA9CEED
:10239000813009F09ECE98CEFF920F931F93CF937A
:1023A000DF93EB01413051F4AB014850510960E03B
:1023B00070E04F5E5F4F6F4F7F4F0FC0423051F460
:1023C000AB014850510960E070E04A5F5F4F6F4FCA
:1023D0007F4F03C040E050E0BA01C230D105F8F0B1
:1023E000DE01FC01008110E020E030E0322F212FDF
:1023F000102F0027F1800F29400F511F621F731FFC
:1024000032961297A230B10568F79E012250310929
:102410002E7F2E5F3F4F820F931FC170DD27CD2B84
:1024200069F0FC01808190E0A0E0B0E0BA2FA92F14
:10243000982F8827480F591F6A1F7B1FCB01AA2797
:10244000BB270097A105B10569F066277727480FDC
:10245000591F6A1F7B1FCB01AA27BB270097A10525
:10246000B10599F740955095842F952FDF91CF9125
:102470001F910F91FF900895009741F026E0FC0115
:10248000ACEFB2E001900D922A95E1F70895FC01BE
:1024900069327105E8F084858830E1F485858630FD
:1024A000D9F496A180910203981318C097A1809146
:1024B0000303981315C090A580910403981312C0CC
:1024C00081E021A590910503291769F080E0089526
:1024D00080E0089580E0089580E0089580E0089508
:1024E00080E0089580E00895FC016A32710500F1F2
:1024F00084858830F9F4858581111EC086858534F0
:10250000E9F4968D8091020398131AC0978D8091FB
:102510000303981317C090A180910403981314C06B
:1025200081E021A190910503291779F080E00895B9
:1025300080E0089580E0089580E0089580E00895A7
:1025400080E0089580E0089580E00895CF93DF93C0
:10255000EC01ACEFB2E0FC01369682E093E0208122
:1025600029932D912193A817B907C9F7DF91CF912E
:102570000895CF93DF93EC01188E198E80E48C8B35
:102580001D8A8E8B40E064E170E0CE010E960E94C1
:10259000CC11988F898FDF91CF910895CF93DF93DE
:1025A000EC016E96A2E0B3E0FC017A9626E033E0FF
:1025B000408149934D914193A217B307C9F70E94F7
:1025C000B912DF91CF910895FC01BA96DC019E9675
:1025D00086962291620F711D2E916C93442311F007
:1025E000208301C01082672F7727E817F90789F742
:1025F0000895CF93DF93EC018CA19AA19CA38AA3A9
:102600008DA19BA19DA38BA3CE010E94E4121AAAC7
:102610001BAA80E58EA7DF91CF9108950F931F939A
:10262000CF93DF938C010E94A612F801148A82E0F6
:10263000858BE801A096ACEFB2E0769682E093E05D
:10264000208129932D912193A817B907C9F7E80193
:10265000A696A2E0B3E0F8017C9686E093E02081A4
:1026600029932D912193A817B907C9F7B8018AE2D8
:1026700090E00E940604DF91CF911F910F91089581
:102680000F931F93CF93DF93EC018B010E94A6124F
:10269000CE010E94CE121AA28CA1883F18F09DA1F3
:1026A0009F5F9DA3885F8CA3BE01C8010E940604A2
:1026B000DF91CF911F910F910895FC01308920E0A7
:1026C0008189282B2451310986A582958F7094E049
:1026D000899F201931091124332314F420E030E0BC
:1026E000822F932F0895CF93DF93C42FD52FFE0110
:1026F0004491442389F0DB01D696A80FB91F9B01B2
:102700004D932F5F3F4FF901E61BF70BEC0FFD1FB9
:1027100044914111F5CF01C09B01822F932FDF918E
:10272000CF910895222381F0E42FF52FDB01D69677
:10273000A80FB91F822F91919D938150E1F76F5F90
:102740007F4F2150620F711D862F972F0895E42F20
:10275000F52FDF010D900020E9F711979D012E1B49
:102760003F0B0E9492130895FF920F931F93CF93F4
:10277000DF93EC018B01F42E0E94A6128F2D806155
:102780008FA784E0F81206C041E0B801CE010E9494
:10279000F9120AC00115110511F401E010E041E041
:1027A000B801CE010E94F912188A88E2898BCE0105
:1027B0000E94CE1284E088AB19AA42E06CE170E07E
:1027C000CE014A960E94CC119AAB8BABBE0186E338
:1027D00090E00E940604DF91CF911F910F91FF902E
:1027E00008950F931F93CF93DF93EC018B01CB01DF
:1027F0008896988B898BCE010E94B9121AAA1BAABF
:10280000B801645E7F4F42E0CE014A960E94CC112F
:102810009AAB8BABBE01C801C6960E940604DF913D
:10282000CF911F910F9108950F931F93CF93DF9333
:10283000EC018B0189E18FA7CB018896988B898B5E
:10284000CE010E94B9121AAA1BAAB801645E7F4F7A
:1028500042E0CE014A960E94CC119AAB8BABBE01EE
:10286000C801C6960E940604DF91CF911F910F9177
:1028700008956115710551F0DB01E2E0F3E026E017
:1028800033E04D914193E217F307D9F7009711F028
:102890000E943C1208959093060380937D00089552
:1028A000CF93DF93EC010E94A612188A8CE2898BE9
:1028B000CE010E94CE1282E18FA740E061E070E07D
:1028C000CE010E94F9121EA21FA280917E0088A74D
:1028D00019A68D5F80937E0082E08EAB84E08FAB83
:1028E00085E088AF19AE80E68EA78AE088AB19AA8A
:1028F00042E060E270E0CE014A960E94CC119AABB1
:102900008BABBE018AE390E00E940604DF91CF9179
:1029100008950F931F93CF93DF93EC018B01609188
:1029200007037091080340E00E94B41389E18FA768
:10293000B801CE010E94F113DF91CF911F910F9149
:102940000895DC01FA016115710541F0680F791FE6
:1029500084918D933196A617B707D1F70895CF923A
:10296000DF92EF92FF920F931F93CF93DF937C013F
:10297000C62ED72E80910203882309F445C0C701D3
:10298000CCEFD2E0A7014A5F5F4F02E013E0FE0107
:102990003FEFDC013D93CD012191DA012D93AD0193
:1029A000E017F107B1F788E0F701848786E08587B3
:1029B00047EE54E068E070E0C7010E960E94A11453
:1029C000D7015696F701B09689918D931192C01751
:1029D000D107D1F76C2D7D2DC7018696E2E0F3E09B
:1029E000E7016C9626E033E0DB014D91BD01DC018F
:1029F0004D93CD0141914993E217F307A9F7B70130
:102A00008AE290E00E940604DF91CF911F910F911E
:102A1000FF90EF90DF90CF900895FF920F931F9358
:102A2000CF93DF938C01EB012097A9F580910903E7
:102A3000893079F480917F0090918000892BF9F49E
:102A40000E94FD03882329F06BE073E0C8010E9417
:102A5000AF1480910903813091F40E94FD03882313
:102A600071F06BE073E0C8010E94AF14809109031C
:102A70008860809309031092800010927F008091FB
:102A80007F009091800001969093800080937F005A
:102A900020E030E0B5C00E944712882379F1F801A8
:102AA0008589813019F4C8010E940E1380910903B1
:102AB00083FF86C0F8018589823009F084C044E034
:102AC00050E06BE073E0C8014C960E945A18282F22
:102AD000392F232B09F07AC0A8014A5E5F4FE0919D
:102AE0004306F091440660910A038BE093E0099558
:102AF00082E08093090320E030E082C0BE01C8017B
:102B00000E947412882309F464C0F8018789813017
:102B1000A1F482A1883009F05FC0E0910F03F09129
:102B20001003309719F0C8014A960995BE01C801F3
:102B30000E94401320E030E063C0C633D10508F4A2
:102B40004EC0863009F04EC0F80194A18091060372
:102B500098134BC095A180917D00981349C0F7A4AC
:102B6000F1FE06C0C8010E94501420E030E048C0C9
:102B7000F4FE41C0C8010E945D1390930803809346
:102B80000703892B59F4F0FE39C040E060E070E0A3
:102B9000C8010E94B41320E030E032C0F80126A53D
:102BA00022952F7030E0220F331F220F331F2E5D2E
:102BB0003F4F2897C217D30718F520E030E020C018
:102BC00020E030E01DC020E030E01AC020E030E01E
:102BD00017C020E030E014C020E030E011C020E059
:102BE00030E00EC020E030E00BC020E030E008C054
:102BF00020E030E005C020E030E002C020E030E01E
:102C0000822F932FDF91CF911F910F91FF90089505
:102C1000CF92DF92EF92FF92CF93C82F6A017B0190
:102C200080913C05811115C08C2F8151823040F07C
:102C3000C83131F0C93121F0C03211F0C13249F44C
:102C40000B2EB9E0CC0CDD1CEE1CFF1CBA95D1F7A5
:102C5000B02DC0988C2F80640E949F178F2D0E94EA
:102C60009F178E2D0E949F178D2D0E949F178C2DD0
:102C70000E949F17C83021F487E80E949F1707C061
:102C800085E90E949F1703C0FA9411F41BC0F12C30
:102C90000E94AD178F3FC1F3F82E811115C0CA33C2
:102CA000A1F40E94AD1786FF04C081E080933C052B
:102CB00002C010923C050E94AD170E94AD170E9401
:102CC000AD1703C0F82E01C0F82E0E94AD17C09AB0
:102CD0008F2DCF91FF90EF90DF90CF9008951F93AD
:102CE000CF93DF93CAE08FEF0E949F17C150D9F7AF
:102CF000C09840E050E0BA0180E00E940816C0E2AF
:102D0000D0E009C040E050E0BA0180E00E9408161F
:102D1000219709F473C08130A9F7C09A8FEF0E9400
:102D20009F178FEF0E949F174AEA51E060E070E022
:102D300088E00E940816CEEFD0E012C04AEA51E0C7
:102D400060E070E088E00E940816219749F485E968
:102D500090E00E94DB1781E08093AB0511E003C097
:102D6000813061F712E040E050E0BA0187E30E9451
:102D7000081640E050E060E070E489E20E94081626
:102D8000CEEFD0E015C040E050E0BA0187E30E94EA
:102D9000081640E050E060E070E489E20E94081606
:102DA000219731F485E990E00E94DB1782E031C081
:102DB0008111E9CF10923C05123011F12AC040E098
:102DC00050E0BA018AE30E940816219739F485E998
:102DD00090E00E94DB171092AB0502C08111EFCF8B
:102DE00080913C05813029F482E08093AB0580E03E
:102DF00010C083E08093AB0580E00BC081E009C088
:102E000040E050E0BA018AE30E940816CEEFD0E01D
:102E1000E5CFDF91CF911F9108951F93CF93DF935B
:102E2000AB01BC0181E10E940816182F811121C05D
:102E3000C098C0E0D0E005C0219719F4C09A11E015
:102E400018C00E94AD178E3FB9F7C0E0D0E00E94D5
:102E5000AD17FE01EA5CFC4F80832196C11582E02C
:102E6000D807A9F70E94AD170E94AD170E94AD17B1
:102E7000C09A812FDF91CF911F910895FF920F93F8
:102E80001F93CF93DF93AB01BC0188E10E9408162A
:102E9000F82E811146C0C0988EEF0E949F17C0E0A7
:102EA000D0E0FE01EA5CFC4F80810E949F172196D2
:102EB000C11582E0D807A9F78FEF0E949F178FEF07
:102EC0000E949F170E94AD17982F9F71953059F05F
:102ED000C09AF82E26C00F5F1F4F219741F4C09A69
:102EE000FF24F3941EC0C0E0D0E000E010E00E9498
:102EF000AD17882381F3C09A8FEF0E949F17C09867
:102F00000BC098012F5F3F4F0F3F1F4F21F4C09A16
:102F1000FF24F39406C089010E94AD17882389F32A
:102F2000C09A8F2DDF91CF911F910F91FF9008953F
:102F300088B38B6088BB87B3876087BB089598E0B0
:102F4000882314F0C19801C0C19A880FC29A00006A
:102F5000C2989150A9F780E0089598E080E0C29A65
:102F6000880FB3998160C29800009150C1F708950D
:102F700028E12AB9DC01CB01880F991FAA1FBB1FCA
:102F8000880F991FAA1FBB1F9C01AD01220F331F81
:102F9000441F551F220F331F441F551F60E074E26A
:102FA00084EF90E00E942118215029B908955D9B7B
:102FB000FECF8CB90895CF93DF93EC0188818823ED
:102FC00031F021960E94D71789918111FBCFDF91B3
:102FD000CF9108955D9BFECF8CB90895CF93DF9379
:102FE000EC01FE012491222351F02196FC018491F1
:102FF0000E94EA17CE01FE0124912111F6CFDF9144
:10300000CF910895CF93DF93EC018881882331F02D
:1030100021960E94EA1789918111FBCFDF91CF9110
:103020000895DB018F939F930E944F18BF91AF913A
:10303000A29F800D911DA39F900DB29F900D112412
:103040000895A1E21A2EAA1BBB1BFD010DC0AA1FE9
:10305000BB1FEE1FFF1FA217B307E407F50720F001
:10306000A21BB30BE40BF50B661F771F881F991F7C
:103070001A9469F760957095809590959B01AC01C5
:10308000BD01CF010895A29FB001B39FC001A39FCE
:1030900001D0B29F700D811D1124911D08950E94D1
:1030A0004318A59F900DB49F900DA49F800D911D76
:1030B00011240895FB01DC0104C08D910190801959
:1030C00021F441505040C8F7881B990B0895FB012B
:1030D000DC014150504030F08D910190801919F47D
:0E30E0000020B9F7881B990B0895F894FFCFD4
:1030EE0020687474703A2F2F31302E302E302E31DE
:1030FE00302F005455581000240A00000A500A01BF
:10310E0000202020202020202020202020202042AF
:10311E0079746573000D0A002A2A2A2A2A2A2A2A75
:10312E002A2A2A2A2A4F5647552054574920534CAB
:10313E004156452052554E4E494E472A2A2A2A2A92
:10314E002A2A2A2A2A2A2A2A0047455420002F20D2
:02315E0000006F
:00000001FF
