S01D00006D61737465725F6174393063616E3132385F6E65772E7372656368
S11300000C941F010C943E010C943E010C943E018F
S11300100C943E010C943E010C943E010C943E0160
S11300200C943E010C943E010C943E010C943E0150
S11300300C943E010C943E010C943E010C943E0140
S11300400C943E010C94B5070C9411030C943E01DE
S11300500C943E010C943E010C943E010C943E0120
S11300600C943E010C943E010C943E010C943E0110
S11300700C943E010C943E010C943E010C943E0100
S11300800C943E010C943E010C943E010C94930696
S11300900C943E019A07A207A207A207A207A2078F
S11300A0A207A207B206A207A207A207A207A207F5
S11300B0A207A207B206A207A207A207A207A207E5
S11300C0A207A207BD06A207A207A207A207A207CA
S11300D0A207A207E906A207A207A207A207A2078E
S11300E0A207A207BD06A207A207A207A207A207AA
S11300F0A207A207E906A207A207A207A207A2076E
S1130100A207A207F206A207A207A207A207A20754
S1130110A207A2070707A207A207A207A207A2072E
S1130120A207A207E906A207A207A207A207A2073D
S1130130A207A207FB06A207A207A207A207A2071B
S1130140A207A207DD06A207A207A207A207A20729
S1130150A207A2071F07A207A207A207A207A207D6
S1130160A207A2071F07A207A207A207A207A207C6
S1130170A207A2071F07A207A207A207A207A207B6
S1130180A207A2071F07A207A207A207A207A207A6
S1130190A207A2072B07A207A207A207A207A2078A
S11301A0A207A2074707A207A207A207A207A2075E
S11301B0A207A2072B07A207A207A207A207A2076A
S11301C0A207A2074707A207A207A207A207A2073E
S11301D0A207A2074E07A207A207A207A207A20727
S11301E0A207A2076207A207A207A207A207A20703
S11301F0A207A2076207A207A207A207A207A207F3
S1130200A207A2077307A207A207A207A207A207D1
S1130210A207A2079107A207A207A207A207A207A3
S1130220A207A20791077E6E7F620C37260C371255
S11302300C370E0C37060C37020C37000C37112420
S11302401FBECFEFD0E1DEBFCDBF11E0A0E0B1E033
S1130250E0E4F7E100E00BBF02C007900D92A0318B
S1130260B107D9F722E0A0E1B1E001C01D92AC359D
S1130270B207E1F70E9460080C949E0B0C940000F6
S1130280611571058105910579F060FD0BC020E0D1
S113029096958795779567952F5F60FFF9CF2F30F7
S11302A028F405C020E003C02FEF01C02FEF822FF8
S11302B008954F925F927F928F929F92AF92BF92D6
S11302C0CF92DF92EF92FF920F931F93CF93DF931E
S11302D0559A5698883008F0B4C0E8EDF0E0908163
S11302E09160908310821092E0001092E1001092CD
S11302F0DA001092DB001092DD001092DC00109204
S1130300DF001092DE00EDEEF0E09081977F9083A5
S113031090E00F2EFDEEAF2EB12CF02D0F2EF3EF4B
S1130320CF2ED12CF02D0F2EF2EFEF2EF12CF02D3D
S113033001EF10E060EF70E047EF50E026EF30E0AF
S1130340C5EFD0E0A4EFB0E00F2EFEEE4F2E512CFF
S1130350F02D0F2EFFEE8F2E912CF02D792E770C91
S1130360770C770C770CF5017082F6011082F70197
S11303701082F8011082FB011082FA011082F90147
S1130380108218821C92F2011082F40110829F5F85
S11303909F3021F790E09C01220F331F820F931F9F
S11303A0FC01EA5DFD4FE491E093E200FC01E95DAC
S11303B0FD4FE491E093E300FC01E85DFD4F84917F
S11303C08093E4004DEE50E080E1FA0180832EEE4C
S11303D030E0F901108280E88093EF0083EF90E031
S11303E0FC011082C2EFD0E01882A1EFB0E01C92B1
S11303F000EF10E0F80110821092F7001092F6005E
S11304001092F5001092F40060E2FA016083F901A1
S11304101082FC01108218821C92F801108280EB79
S11304208093DB0086E08093DE00E8EDF0E08081DD
S113043082608083E9EDF0E0808182FFFDCF81E07E
S113044001C080E0DF91CF911F910F91FF90EF9059
S1130450DF90CF90BF90AF909F908F907F905F90F0
S11304604F9008958F929F92AF92BF92CF92DF9256
S1130470EF92FF920F931F93CF93DF93CDB7DEB725
S113048061970FB6F894DEBF0FBECDBF89829A8202
S1130490AB82BC82CD82DE82EF82F886E02F0987B0
S11304A01A872B873C874D875E876F87788B898B6C
S11304B089819A81AB81BC8120E22093ED00209157
S11304C01101222371F1E061E093EF00282F220F44
S11304D0220F220F2093F400AC01BD01689414F89C
S11304E076956795579547951694D1F74093F500FF
S11304F0AC01BD01032E3DE0769567955795479570
S11305003A95D1F7302D4093F600072E75E1B69554
S1130510A795979587957A95D1F7702D8093F700D5
S113052023C00093EF00282F2295220F207E2093D2
S1130530F200689412F8B695A79597958795169446
S1130540D1F78093F30010C021912C93E817F90799
S1130550D9F7E9EDF0E0808184FDFDCFEFEEF0E026
S113056080818064808307C0FE013A96CE01429662
S1130570AAEFB0E0E9CF61960FB6F894DEBF0FBEE4
S1130580CDBFDF91CF911F910F91FF90EF90DF903E
S1130590CF90BF90AF909F908F9008951092F000ED
S11305A083E08093F10088EF8093F20087EC8093DE
S11305B0F3008FEF8093F40097E89093F500809315
S11305C0F6008093F70008950F931F930091F300B2
S11305D08091F20010E020E030E0302F2227112734
S11305E00027282B8091F100182B8091F000887F40
S11305F0082B689412F83695279517950795169445
S1130600D1F7602F712F822F932F1F910F9108958F
S113061080E18093ED000E94CE0280E98093EF0098
S113062008951F920F920FB60F9211240BB60F92DA
S11306306F927F928F929F92AF92BF92CF92DF92EE
S1130640EF92FF920F931F932F933F934F935F93D8
S11306506F937F938F939F93AF93BF93EF93FF9386
S1130660CF93DF93CDB7DEB7C45FD140DEBFCDBF3C
S11306707090ED002091E0003091E100932F80E034
S1130680BC01622B882777FD8095982F0E9440013A
S11306908F3F09F4B3C28295807F8093ED008091EF
S11306A0EE0086FF06C0EEEEF0E080818F7B808353
S11306B0A3C28091EE0085FF9FC20E94E402609372
S11306C0000270930102809302029093030240910E
S11306D0EF004F70409308021092090210920A0230
S11306E010920B0210920C0210920D0210920E0244
S11306F010920F0210921002442359F029E032E0C4
S1130700F901AAEFB0E05C9151935E2F521B54178C
S1130710D0F3603671052FEF820728E1920769F55F
S113072000E610E02FEF38E1009326021093270231
S1130730209328023093290240932E0210922F0214
S1130740109230021092310210923202109233024F
S1130750109234021092350210923602442309F4A6
S113076076C029E032E0AFE2B2E0F90151915D9345
S11307705E2F521B5417D0F36AC06036A1E07A078B
S1130780AFEF8A07A8E19A0769F580E691E0AFEF39
S1130790B8E18093DE019093DF01A093E001B09370
S11307A0E1014093E6011092E7011092E8011092F2
S11307B0E9011092EA011092EB011092EC011092FF
S11307C0ED011092EE01442309F40CC289E092E099
S11307D0A7EEB1E0FC0121912D932E2F281B2417A5
S11307E0D0F300C26036B2E07B07BFEF8B07B8E1FD
S11307F09B0769F580E692E0AFEFB8E18093EF01E3
S11308009093F001A093F101B093F2014093F701AA
S11308101092F8011092F9011092FA011092FB0162
S11308201092FC011092FD011092FE011092FF0142
S1130830442309F4D7C189E092E0A8EFB1E0FC01B8
S113084021912D932E2F281B2417D0F3CBC1603672
S113085073408F4F984109F0C5C1809110018F5F9B
S113086080931001853008F4BDC18998FE01E556D6
S1130870FE4F86E4DF01282F1D922A95E9F79E0199
S11308802B5A3E4FD901982F1D929A95E9F79E0154
S1130890215F3E4FD901982F1D929A95E9F79E0149
S11308A027533F4FD9011D928A95E9F79E012F5F87
S11308B03F4F88ECD9011D928A95E9F79E012F518B
S11308C03E4F84E1D9011D928A95E9F780912F0268
S11308D01F928F9380E091E09F938F93FF93EF9308
S11308E00E94CA080F900F900F900F900F900F90D6
S11308F080912E028230E8F1662463940F2EF0E09A
S1130900AF2EF1E0BF2EF02D7E01BFE1EB1ABEEF5A
S1130910FB0A8E0105561E4F0F2EF9E0CF2EF1E093
S1130920DF2EF02D0F2EFEE28F2EF2E09F2EF02D03
S1130930E62DF0E0EA5DFD4F81851F928F93BF9213
S1130940AF92FF92EF920E94CA08FF92EF921F9318
S11309500F93DF92CF921F930F930E94CA08639460
S11309600FB6F894DEBF0FBECDBFD4018C916816CC
S1130970F8F28091E7011F928F9380E091E09F93BA
S11309808F93CE018B5A9E4F9F938F930E94CA08D8
S11309900F900F900F900F900F900F908091E601A1
S11309A08230E8F1662463940F2EF0E0AF2EF1E07C
S11309B0BF2EF02D7E01BFE1EB1ABEEFFB0A8E01C4
S11309C00B5A1E4F0F2EF9E0CF2EF1E0DF2EF02D43
S11309D00F2EF6EE8F2EF1E09F2EF02DE62DF0E097
S11309E0E252FE4F81851F928F93BF92AF92FF9286
S11309F0EF920E94CA08FF92EF921F930F93DF9227
S1130A00CF921F930F930E94CA0863940FB6F89471
S1130A10DEBF0FBECDBFD4018C916816F8F2809171
S1130A20F8011F928F9380E091E09F938F93CE0102
S1130A30815F9E4F9F938F930E94CA080F900F90DF
S1130A400F900F900F900F908091F7018230E8F192
S1130A50662463940F2EF0E0AF2EF1E0BF2EF02D4C
S1130A607E01BFE1EB1ABEEFFB0A8E01015F1E4F50
S1130A700F2EF9E0CF2EF1E0DF2EF02D0F2EF7EF41
S1130A808F2EF1E09F2EF02DE62DF0E0E151FE4F88
S1130A9081851F928F93BF92AF92FF92EF920E9433
S1130AA0CA08FF92EF921F930F93DF92CF921F9386
S1130AB00F930E94CA0863940FB6F894DEBF0FBE6A
S1130AC0CDBFD4018C916816F8F2809109021F926F
S1130AD08F9380E091E09F938F93CE0187539F4F34
S1130AE09F938F930E94CA080F900F900F900F90BE
S1130AF00F900F90809108028230E8F1662463948D
S1130B000F2EF0E0AF2EF1E0BF2EF02D7E01BFE1FD
S1130B10EB1ABEEFFB0A8E0107531F4F0F2EF9E0AD
S1130B20CF2EF1E0DF2EF02D0F2EF8E08F2EF2E025
S1130B309F2EF02DE62DF0E0E050FE4F81851F92B0
S1130B408F93BF92AF92FF92EF920E94CA08FF92D6
S1130B50EF921F930F93DF92CF921F930F930E94F4
S1130B60CA0863940FB6F894DEBF0FBECDBFD4019C
S1130B708C916816F8F2CE0187539F4F9F938F9301
S1130B80CE01815F9E4F9F938F93CE018B5A9E4FD0
S1130B909F938F93CE0185569E4F9F938F9383E0AF
S1130BA091E09F938F938E010F5F1F4F1F930F93BD
S1130BB00E94CA08F80101900020E9F76E2F601B1B
S1130BC0A80187E00E946C06E9EFF0E03197F1F7A5
S1130BD000C00000899A109210010FB6F894DEBF8D
S1130BE00FBECDBFEEEEF0E080818F7D808380E983
S1130BF08093EF000E94CE027092ED00CC50DE4F45
S1130C000FB6F894DEBF0FBECDBFDF91CF91FF9139
S1130C10EF91BF91AF919F918F917F916F915F9170
S1130C204F913F912F911F910F91FF90EF90DF9083
S1130C30CF90BF90AF909F908F907F906F900F90C8
S1130C400BBE0F900FBE0F901F9018959C01E9EBFF
S1130C50F0E080818E7F808380818D7F808340E07F
S1130C6050E060E87EE380E090E00E948608822FF6
S1130C70203148F030E020513109C90199230CF4A6
S1130C800196959587958093B8000895589A599A36
S1130C901092140110921301109216011092150172
S1130CA080E991E00E942606ECEBF0E0808184600C
S1130CB080831092120180818160808380818064AE
S1130CC080837894089591E0611101C090E08E7F53
S1130CD0982B9093BA000895909112019111FCCF32
S1130CE092E0909312018E7F80931701662381F026
S1130CF0E42FF52FA8E1B1E0862F81509F01280F42
S1130D00311DC901019621912D93E817F907D9F7EF
S1130D101092780160937901ECEBF0E080818F70A0
S1130D20806A808308951F920F920FB60F92112448
S1130D300BB60F922F933F934F935F936F937F93D1
S1130D408F939F93AF93BF93EF93FF93E091B90079
S1130D50E87FF0E0E93CF10508F0F4C0E65BFF4F02
S1130D600C94A208809117018093BB00ECEBF0E097
S1130D7080818F7080688083E5C080917801909134
S1130D807901891788F4E82FF0E0E85EFE4F90813E
S1130D908F5F809378019093BB00ECEBF0E080814F
S1130DA08F7080688083CEC0ECEBF0E080818F7020
S1130DB0806D808310921201C5C080917A01909158
S1130DC0BB00E82FF0E0E458FE4F90838F5F8093E0
S1130DD07A01ECEBF0E080818F70806D808310925B
S1130DE01201B0C0ECEBF0E080818F7080688083EA
S1130DF010921201A7C080917A019091BB00E82F54
S1130E00F0E0E458FE4F90838F5F80937A01209145
S1130E107A0130E080917B0190E00197281739072F
S1130E203CF4ECEBF0E080818F70806C80838AC0AE
S1130E30ECEBF0E080818F708068808383C085E074
S1130E408093120110927A01ECEBF0E080818F70B4
S1130E50806C808377C080917A019091BB00E82FE9
S1130E60F0E0E458FE4F90838F5F80937A018036E0
S1130E7038F4ECEBF0E080818F70806C808362C08A
S1130E80ECEBF0E080818F70806880835BC0ECEBDA
S1130E90F0E080818F708068808354C0ECEBF0E0D8
S1130EA080818F70806C8083E0911301F091140134
S1130EB0309729F06CE771E080917A0109951092DE
S1130EC0120140C084E080931201E0911501F09179
S1130ED01601309731F068E171E080E6099580935E
S1130EE079011092780180917801E82FF0E0E85EB2
S1130EF0FE4F90819093BB008F5F80937801909117
S1130F007901891738F4ECEBF0E080818F70806C04
S1130F10808318C0ECEBF0E080818F708068808360
S1130F2011C0ECEBF0E080818F70806C80831092B4
S1130F30120108C0ECEBF0E080818F70806D80833B
S1130F4010921201FF91EF91BF91AF919F918F91F8
S1130F507F916F915F914F913F912F910F900BBEB5
S1130F600F900FBE0F901F9018951F920F920FB6FF
S1130F700F9211240BB60F928F929F92AF92BF9251
S1130F80CF92DF92EF92FF920F931F932F933F9391
S1130F904F935F936F937F938F939F93AF93BF937D
S1130FA0EF93FF938091DC019091DD010196909382
S1130FB0DD018093DC01CC970CF465C081E090E006
S1130FC0909312018093110188E080933F02109264
S1130FD044021092450210924602109247028FEF8B
S1130FE09FEFAFE0B0E08093370290933802A09374
S1130FF03902B0933A02889B04C08FEF8093400279
S113100002C010924002899B04C08FEF809341027A
S113101002C0109241028A9B04C08FEF8093420267
S113102002C0109242028B9B04C08FEF8093430254
S113103002C0109243028090370290903802A09030
S11310403902B0903A02C0903B02D0903C02E0904A
S11310503D02F0903E0200913F0210914002209127
S11310604102309142024091430250914402609106
S1131070450270914602809147020E94320210920A
S1131080DD011092DC01FF91EF91BF91AF919F912F
S11310908F917F916F915F914F913F912F911F910C
S11310A00F91FF90EF90DF90CF90BF90AF909F9003
S11310B08F900F900BBE0F900FBE0F901F9018953E
S11310C02FEF81EE94E0215080409040E1F700C082
S11310D00000809A819A829A839A889889988A983B
S11310E08B9885E00E9459018823D9F30E94080354
S11310F078940E9446066FEF80EA0E94630681E0BE
S113110090E09093120180931101FFCF052E97FB7D
S113111016F4009407D057FD0DD00E94A80807FCD0
S113112009D07EF490958095709561957F4F8F4F8F
S11311309F4F089550954095309521953F4F4F4FBF
S11311405F4F0895EE0FFF1F0590F491E02D099471
S1131150A1E21A2EAA1BBB1BFD010DC0AA1FBB1FB7
S1131160EE1FFF1FA217B307E407F50720F0A21B29
S1131170B30BE40BF50B661F771F881F991F1A9496
S113118069F760957095809590959B01AC01BD01C0
S1131190CF0108950F931F93CF93DF93CDB7DEB79D
S11311A02E970FB6F894DEBF0FBECDBF0D891E89F2
S11311B086E08C831A8309838FEF9FE79E838D8358
S11311C0CE014996AC016F89788DCE0101960E94BB
S11311D0F908EF81F885E00FF11F10822E960FB603
S11311E0F894DEBF0FBECDBFDF91CF911F910F9159
S11311F008952F923F924F925F926F927F928F92B7
S11312009F92AF92BF92CF92DF92EF92FF920F9391
S11312101F93CF93DF93CDB7DEB72C970FB6F89417
S1131220DEBF0FBECDBF7C016B018A01FC011782BA
S11312301682838181FFC6C188248394912C8C0EED
S11312409D1EF7019381F60193FD859193FF819192
S11312506F01882309F4B2C1853239F493FD859175
S113126093FF81916F01853229F4B70190E00E94C8
S1131270140BE7CF512C312C20E02032A8F48B3210
S113128061F028F4803251F0833271F40BC08D3256
S113129039F0803349F4216028C02260246025C0DD
S11312A0286023C0206121C027FD27C0382F305378
S11312B03A3078F426FF06C0FAE05F9E300D112420
S11312C0532E13C08AE0389E300D1124332E206231
S11312D00CC08E3221F426FD71C1206406C08C3608
S11312E011F4206802C0883641F4F60193FD85911B
S11312F093FF81916F018111C0CF982F9554933042
S113130018F09052933028F40C5F1F4FFFE3F983D9
S11313100DC0833631F0833771F0833509F05EC038
S113132023C0F801808189830E5F1F4F44244394B6
S1131330512C540115C03801F2E06F0E711CF801F4
S1131340A080B18026FF03C0652D70E002C06FEF5E
S11313507FEFC5012C870E94090B2C0183012C858A
S11313606FE7262E222218C03801F2E06F0E711C9E
S1131370F801A080B18026FF03C0652D70E002C093
S11313806FEF7FEFC5012C870E94FE0A2C012C858C
S113139050E8252E222A830123FC1CC006C0B70175
S11313A080E290E00E94140B3A94832D90E048165A
S11313B05906A8F30FC0F50127FC859127FE8191FA
S11313C05F01B70190E00E94140B31103A94F1E0F0
S11313D04F1A51084114510471F7EDC0843611F0CD
S11313E0893641F5F80127FF07C060817181828148
S11313F093810C5F1F4F08C060817181882777FD3E
S11314008095982F0E5F1F4F4FE6B42EB22297FFA0
S113141009C090958095709561957F4F8F4F9F4F30
S1131420F0E8BF2A2AE030E0A4010E94400BA82E75
S1131430A81843C0853731F43FEEB32EB2222AE018
S113144030E024C099EFB92EB2228F36B9F020F4DF
S1131450883509F0B3C00DC0803721F0883709F012
S1131460ADC002C020E1B22AB4FE0BC084E0B82AA9
S113147008C024FF09C0E6E0BE2A06C028E030E028
S113148005C020E130E002C020E132E0F801B7FEFF
S113149007C060817181828193810C5F1F4F06C0F8
S11314A06081718180E090E00E5F1F4FA4010E9473
S11314B0400BA82EA818FFE7BF22B6FE0BC02B2DA9
S11314C02E7FA51450F4B4FE0AC0B2FC08C02B2D24
S11314D02E7E05C07A2C2B2D03C07A2C01C0752CCE
S11314E024FF0DC0FE01EA0DF11D8081803311F44B
S11314F0297E09C022FF06C07394739404C0822F0E
S1131500867809F0739423FD14C020FF0FC05A2C71
S1131510731460F4530C5718732C08C0B70180E29D
S113152090E02C870E94140B73942C857314B0F3F1
S113153004C0731410F4371801C0312C24FF12C0F6
S1131540B70180E390E02C870E94140B2C8522FFC6
S11315501EC021FF03C088E590E002C088E790E048
S1131560B7010CC0822F867891F021FD02C080E281
S113157001C08BE227FD8DE2B70190E00E94140BBD
S113158006C0B70180E390E00E94140B5A94A5149E
S1131590C0F3AA94F401EA0DF11DB701808190E033
S11315A00E94140BA110F5CF06C0B70180E290E0B1
S11315B00E94140B3A943110F8CF43CEF7012681E0
S11315C0378102C02FEF3FEFC9012C960FB6F89474
S11315D0DEBF0FBECDBFDF91CF911F910F91FF9062
S11315E0EF90DF90CF90BF90AF909F908F907F90BF
S11315F06F905F904F903F902F900895FC0105905D
S1131600615070400110D8F7809590958E0F9F1F00
S11316100895FC016150704001900110D8F7809545
S113162090958E0F9F1F08950F931F93CF93DF9371
S11316308C01EB018B8181FD03C00FEF1FEF1AC0FA
S113164082FF0DC02E813F818C819D81281739072F
S113165064F4E881F9810193F983E88306C0E8859D
S1131660F985802F0995892B41F78E819F810196F9
S11316709F838E83C801DF91CF911F910F910895AD
S1131680FA01AA27283051F1203181F1E8946F93AF
S11316906E7F6E5F7F4F8F4F9F4FAF4FB1E03ED055
S11316A0B4E03CD0670F781F891F9A1FA11D680FF3
S11316B0791F8A1F911DA11D6A0F711D811D911D26
S11316C0A11D20D009F468943F912AE0269F11249B
S11316D03019305D3193DEF6CF010895462F4770FF
S11316E0405D4193B3E00FD0C9F7F6CF462F4F705A
S11316F0405D4A3318F0495D31FD4052419302D0B8
S1131700A9F7EACFB4E0A69597958795779567955D
S1131710BA95C9F700976105710508959B01AC015D
S11317200A2E06945795479537952795BA95C9F784
S1131730620F731F841F951FA01D0895F894FFCF97
S1131740256400257320257320257320257300004C
S9030000FC
