:100000000A128A15612DF401F5010628701C0928D1
:100010000A2810287208F4070318F50A7308F50770
:1000200001300310F20DF30DFF3E031D11280130C6
:100030000310F10CF00CFF3E031D1828710870042A
:10004000031D23282428062825287508F101F10717
:100050007408F001F0072C28080000308312031305
:10006000A7000030A6000030A5000030A400D0306A
:10007000A8000730A90029082804031D40284128AA
:100080004328922892281F1545281F1948284928D7
:1000900045284A281E08A000A1012008D0002108F8
:1000A000D1005008A100A0012008D0002108D100F3
:1000B000831603131E0883120313A000A101500826
:1000C000A300A20120082204D00021082304D100AB
:1000D0005008A0005108A100A201A3012008A40714
:1000E000210803110318013E03197728A5072208E8
:1000F00003110318013E03197E28A60723080311E4
:100100000318013E03198528A7070130A802003013
:10011000031CA903A90229082804031D902891287B
:10012000432892280030F3000030F2000730F1003D
:10013000D030F0002708F7002608F6002508F50063
:100140002408F4000A128A1517270A128A11710866
:1001500083120313D101D1077008D001D007080022
:10016000780883120313A0007908A1007A08A2007E
:100170000310210D220DA3002308A900A908031DC7
:10018000C228C328CD280030FB000030FA00003020
:10019000F9000030F800552955297808A0007908A1
:1001A000A1007A08A20017300310A20CA10CA00C29
:1001B000FF3E031DD4282008A3002308A400F9173C
:1001C000FF30F805FF30F9050030FA057808A50082
:1001D0007908A6007A08A700A8018E30A902A91FF5
:1001E000F228F32818292908803A8F3E0318F928A5
:1001F000FA2805290030FB000030FA000030F90031
:100200000030F80055295529052901300310A80CA4
:10021000A70CA60CA50CFF3E031D06290130A0006B
:100220002008A907031D1529162905293C293C2961
:1002300018302902031C1D291E2935290030FB0016
:100240000030FA000030F9000030F8005529552937
:1002500035290130A0000310A50DA60DA70DA80D8E
:10026000A00B2B290130A9023529A908031D392922
:100270003A2929293C293C292408031D40294C29D5
:10028000A509A609A709A809A50A0319A60A031919
:10029000A70A0319A80A4C292808FB002708FA0016
:1002A0002608F9002508F8005529080083120313D1
:1002B0002D08B3002E08B4002F08B5000310340D2C
:1002C000350DB6003608B700B708031D682969293F
:1002D00071290030AD000030AE000030AF00432A7D
:1002E000432A3008B3003108B4003208B5000310C7
:1002F000340D350DB6003608BC00BC08031D81293D
:1003000082298A290030AD000030AE000030AF00F5
:10031000432A432A3C087B3EB3003308B7072D0825
:10032000B3002E08B4002F08B50010300310B50C30
:10033000B40CB30CFF3E031D96293308B6003608F3
:10034000BC003008B3003108B4003208B5001030EA
:100350000310B50CB40CB30CFF3E031DA8293308E1
:10036000B6003608BC068030B3003308BC05AE17B3
:10037000B117FF30B005FF30B1050030B2050030D5
:10038000B8000030B9000030BA000730B3003308BD
:10039000BB00CA292D1CCD29CE29DF293008B8077A
:1003A000310803110318310A0319D729B907320894
:1003B00003110318320A0319DE29BA07DF290130B5
:1003C0000310AF0CAE0CAD0CFF3E031DE029013055
:1003D0000310B00DB10DB20DFF3E031DE829013031
:1003E000BB02031DF429F529CA29F6290930B300F7
:1003F0003308BB00FB292D1CFE29FF29102A3008D9
:10040000B807310803110318310A0319082AB9077C
:10041000320803110318320A03190F2ABA07102AE7
:1004200001300310AF0CAE0CAD0CFF3E031D112AC2
:1004300001300310BA0CB90CB80CFF3E031D192A89
:100440000130BB02031D252A262AFB29272A38084A
:10045000F0003908F1003A08F2003708B300330819
:10046000F3003C08B4003408F4000A128A1585270A
:100470000A128A11700883120313AD007108AE00CE
:100480007208AF00432A08000030F3000130F20088
:100490008630F100A030F000831203132308F70028
:1004A0002208F6002108F5002008F4000A128A1537
:1004B00017270A128A11700883120313A400240854
:1004C000A5000030F3000130F2008630F100A030CA
:1004D000F0002308F7002208F6002108F5002008A4
:1004E000F4000A128A15BB260A128A1173088312B5
:1004F0000313A3007208A2007108A1007008A000F5
:100500000030F3000030F2002730F1001030F0002E
:100510002308F7002208F6002108F5002008F4005F
:100520000A128A1517270A128A11700883120313F8
:10053000A4002408A6000030F3000030F2002730A9
:10054000F1001030F0002308F7002208F60021081F
:10055000F5002008F4000A128A15BB260A128A1137
:10056000730883120313A3007208A2007108A1008C
:100570007008A0000030F3000030F2000330F100FA
:10058000E830F0002308F7002208F6002108F50003
:100590002008F4000A128A1517270A128A11700817
:1005A00083120313A4002408A7000030F3000030D6
:1005B000F2000330F100E830F0002308F7002208D1
:1005C000F6002108F5002008F4000A128A15BB265F
:1005D0000A128A11730883120313A3007208A2007F
:1005E0007108A1007008A0000030F3000030F20094
:1005F0000030F1006430F0002308F7002208F60014
:100600002108F5002008F4000A128A1517270A129B
:100610008A11700883120313A4002408A800003074
:10062000F3000030F2000030F1006430F0002308E5
:10063000F7002208F6002108F5002008F4000A124D
:100640008A15BB260A128A11730883120313A300AA
:100650007208A2007108A1007008A0000030F30029
:100660000030F2000030F1000A30F0002308F700FB
:100670002208F6002108F5002008F4000A128A1565
:1006800017270A128A11700883120313A400240882
:10069000A9000030F3000030F2000030F1000A3011
:1006A000F0002308F7002208F6002108F5002008D2
:1006B000F4000A128A15BB260A128A1173088312E3
:1006C0000313A3007208A2007108A1007008A00023
:1006D0002508031D6C2BA12B2508303E0A128A1514
:1006E000D8250A128A11831203132608303E0A12F3
:1006F0008A15D8250A128A11831203132708303E5F
:100700000A128A15D8250A128A118312031328089F
:10071000303E0A128A15D8250A128A118312031351
:100720002908303E0A128A15D8250A128A11831226
:1007300003132008303E0A128A15D8250A128A119E
:10074000412C831203132608031DA72BD32B260845
:10075000303E0A128A15D8250A128A118312031311
:100760002708303E0A128A15D8250A128A118312E8
:1007700003132808303E0A128A15D8250A128A1156
:10078000831203132908303E0A128A15D8250A124B
:100790008A11831203132008303E0A128A15D825C5
:1007A0000A128A11412C831203132708031DD92B27
:1007B000FC2B2708303E0A128A15D8250A128A1106
:1007C000831203132808303E0A128A15D8250A120C
:1007D0008A11831203132908303E0A128A15D8257C
:1007E0000A128A11831203132008303E0A128A1556
:1007F000D8250A128A11412C831203132808031DDD
:10080000022C1C2C2808303E0A128A15D8250A1200
:100810008A11831203132908303E0A128A15D8253B
:100820000A128A11831203132008303E0A128A1515
:10083000D8250A128A11412C831203132908031D9B
:10084000222C332C2908303E0A128A15D8250A1288
:100850008A11831203132008303E0A128A15D82504
:100860000A128A11412C831203132008303E0A1207
:100870008A15D8250A128A11412C412C412C412C71
:10088000412C0800831203139E01831603139E015B
:10089000C0309F00FF3085008601870188018312E8
:1008A000031385018601870101300A128A157E250E
:1008B0000A128A1102300A128A157E250A128A113A
:1008C00006300A128A157E250A128A110C300A1285
:1008D0008A157E250A128A1138300A128A157E2559
:1008E0000A128A118316031307178717813099009C
:1008F00018151812181398168312031318131816C4
:100900009817822C00300A128A150C260A128A11B6
:100910004C300A128A15D8250A128A1149300A1257
:100920008A15D8250A128A1147300A128A15D82545
:100930000A128A1148300A128A15D8250A128A1119
:1009400054300A128A15D8250A128A113D300A122B
:100950008A15D8250A128A1114300A128A150C2613
:100960000A128A1154300A128A15D8250A128A11DD
:1009700045300A128A15D8250A128A114D300A12FA
:100980008A15D8250A128A1150300A128A15D825DC
:100990000A128A113D300A128A15D8250A128A11C4
:1009A000E8300A128A150C260A128A1156300A12E9
:1009B0008A15D8250A128A114F300A128A15D825AD
:1009C0000A128A114C300A128A15D8250A128A1185
:1009D00054300A128A15D8250A128A1141300A1297
:1009E0008A15D8250A128A1147300A128A15D82585
:1009F0000A128A1145300A128A15D8250A128A115C
:100A00003D300A128A15D8250A128A1128300A1296
:100A10008A150C260A128A1143300A128A15D82523
:100A20000A128A1155300A128A15D8250A128A111B
:100A300052300A128A15D8250A128A1152300A1227
:100A40008A15D8250A128A1145300A128A15D82526
:100A50000A128A114E300A128A15D8250A128A11F2
:100A600054300A128A15D8250A128A113D300A120A
:100A70008A15D8250A128A113D2D8130831203135D
:100A80009F0008300A128A150C260A128A110A12CF
:100A90008A112D200A128A110A128A156E250A124D
:100AA0008A11710883120313C401C4077008C301BB
:100AB000C3070A30F0000030F1004408F301F307E7
:100AC0004308F201F2070A128A156D260A128A11EA
:100AD000700883120313A0007108A100A201A301F2
:100AE0000A128A1144220A128A112E300A128A1519
:100AF000D8250A128A110A30F0000030F100831262
:100B000003134408F301F3074308F201F2070A1242
:100B10008A1529260A128A11700883120313A0006D
:100B20007108A100A201A3010A128A1144220A122B
:100B30008A110A30F0000030F100831203134408D8
:100B4000F301F3074308F201F2070A128A156D2632
:100B50000A128A1170080A128A15A9250A128A1126
:100B60008930831203139F001C300A128A150C2649
:100B70000A128A110A128A112D200A128A110A12E7
:100B80008A156E250A128A11710883120313C8018F
:100B9000C8077008C701C7074808AB01AB0747087B
:100BA000AA01AA070A128A15F1250A128A118312CC
:100BB00003132A08B0002B08B1002C08B2003F3004
:100BC000AD00FA30AE003E30AF000A128A11562155
:100BD0000A128A11831203132D08F8002E08F90057
:100BE0002F08FA000A128A11B0200A128A11790815
:100BF00083120313C801C8077808C701C70747084D
:100C00000A128A15A9250A128A11831203134708AA
:100C1000A0004808A100A201A3010A128A114422DF
:100C20000A128A11DF300A128A15D8250A128A118F
:100C300043300A128A15D8250A128A1120300A1266
:100C40008A15D8250A128A1120300A128A15D82549
:100C50000A128A1100308312031348022930031943
:100C60004702031C342E352E372E0614392E06105B
:100C7000392E91309F00F0300A128A150C260A1284
:100C80008A110A128A112D200A128A110A128A1553
:100C90006E250A128A11710883120313CC01CC0746
:100CA0007008CB01CB074C08AB01AB074B08AA017E
:100CB000AA070A128A15F1250A128A118312031350
:100CC0002A08B0002B08B1002C08B200C530AD00D6
:100CD0009A30AE004030AF000A128A1156210A1233
:100CE0008A11831203132D08F8002E08F9002F082B
:100CF000FA000A128A11B0200A128A1179088312A6
:100D00000313CC01CC077808CB01CB074B080A12A0
:100D10008A15A9250A128A110A30F0000030F10064
:100D2000831203134C08F301F3074B08F201F20797
:100D30000A128A156D260A128A117008831203138B
:100D4000A0007108A100A201A3010A128A11442285
:100D50000A128A112E300A128A15D8250A128A110F
:100D60000A30F0000030F100831203134C08F30145
:100D7000F3074B08F201F2070A128A1529260A1214
:100D80008A11700883120313A0007108A100A20148
:100D9000A3010A128A1144220A128A1120300A126F
:100DA0008A15D8250A128A1156300A128A15D825B2
:100DB0000A128A1120300A128A15D8250A128A11BD
:100DC0009930831203139F0030300A128A150C26C3
:100DD0000A128A110A128A112D200A128A110A1285
:100DE0008A156E250A128A11710883120313C00135
:100DF000C0077008BF01BF070330F0000030F100EA
:100E00004008F301F3073F08F201F2070A128A15BE
:100E10006D260A128A11710883120313C001C007DC
:100E20007008BF01BF073F080A128A15A9250A12D8
:100E30008A110A30F0000030F100831203134008D9
:100E4000F301F3073F08F201F2070A128A156D2633
:100E50000A128A11700883120313A0007108A100FE
:100E6000A201A3010A128A1144220A128A112E3009
:100E70000A128A15D8250A128A110A30F0000030A9
:100E8000F100831203134008F301F3073F08F20156
:100E9000F2070A128A1529260A128A11700883128B
:100EA0000313A0007108A100A201A3010A128A1174
:100EB00044220A128A1120300A128A15D8250A12F1
:100EC0008A1141300A128A15D8250A128A11203057
:100ED0000A128A15D8250A128A1137300A128A1581
:100EE0000C260A128A1150300A128A15D8250A12C5
:100EF0008A113D300A128A15D8250A128A118312E6
:100F000003134C08F101F1074B08F001F00740080A
:100F1000F301F3073F08F201F2070A128A110320D6
:100F20000A128A11710883120313BE01BE077008EA
:100F3000BD01BD070A30F0000030F1003E08F301AA
:100F4000F3073D08F201F2070A128A156D260A120C
:100F50008A11710883120313BE01BE077008BD0118
:100F6000BD073D080A128A15A9250A128A110A30FE
:100F7000F0000030F100831203133E08F301F30781
:100F80003D08F201F2070A128A156D260A128A112B
:100F9000700883120313A0007108A100A201A3012D
:100FA0000A128A1144220A128A112E300A128A1554
:100FB000D8250A128A110A30F0000030F10083129D
:100FC00003133E08F301F3073D08F201F2070A128A
:100FD0008A1529260A128A11700883120313A000A9
:100FE0007108A100A201A3010A128A1144220A1267
:100FF0008A113D2D3D2D822C822C0A128A11002847
:101AB20064008001840A04060319003404065A2DC6
:101AC20083133D30840052300A128A1559250A12B6
:101AD2008A1583010A128A11422C831203135108B8
:101AE200F301F3075008F201F2077308F101F1075D
:101AF2007208F001F0077D2D0800F2008312031333
:101B0200061272088800F430F0000130F1000A1267
:101B12008A1593250A128A150A128A15BF250A12F6
:101B22008A15080071087004031D982D992D9B2DAC
:101B3200A82DA82D0130F0020030031CF103F102A0
:101B420071087004031DA62DA72D9B2DA82D08003A
:101B5200F200AC2D6400831203130C1EB12DB22DC2
:101B6200AB2DB32D720899003C30F0000030F1002B
:101B72000A128A1593250A128A1508008312031382
:101B82008616F430F0000130F1000A128A1593250E
:101B92000A128A15831203138612F430F000013000
:101BA200F1000A128A1593250A128A150800F2001A
:101BB20083120313061672088800720888007208DE
:101BC2008800F430F0000130F1000A128A159325E2
:101BD2000A128A150A128A15BF250A128A150800E6
:101BE200831203132A08F0002B08F100F2018E3051
:101BF200FC007C08F300F4010A128A1585270A12F8
:101C02008A15700883120313AA007108AB007208C8
:101C1200AC000B2E0800F400103074020318122ED0
:101C2200132E1B2E7408803E0A128A157E250A1274
:101C32008A15282E7408EC3EF3007308F400740829
:101C4200C03E0A128A157E250A128A15282E08001D
:101C52007108700403192E2E2F2E652EF501031420
:101C6200F50D3F2E01300310F00DF10DFF3E031D67
:101C7200342E0130F4007408F5073F2EF11F422E76
:101C8200432E332E452E452E71087302031D4B2E13
:101C920070087202031C4E2E4F2E562E7008F2024E
:101CA2007108031CF303F302562E01300310F10CEA
:101CB200F00CFF3E031D572E0130F502031D622E6C
:101CC200632E452E652E652E7308F101F107720809
:101CD200F001F0076C2E0800F501F601710870049E
:101CE2000319742E752EB32EF7010314F70D852EEA
:101CF20001300310F00DF10DFF3E031D7A2E01306D
:101D0200F4007408F707852EF11F882E892E792E8C
:101D12008B2E8B2E01300310F50DF60DFF3E031DA9
:101D22008C2E71087302031D982E70087202031C18
:101D32009B2E9C2EA42E7008F2027108031CF30342
:101D4200F3027514A42E01300310F10CF00CFF3EC7
:101D5200031DA52E0130F702031DB02EB12E8B2ECE
:101D6200B32EB32E7608F101F1077508F001F007E2
:101D7200BA2E080073087204710470040319C22E8B
:101D8200C32E0D2FF9010314F90DD52E0130F800E1
:101D92000310F00DF10DF20DF30DF80BC92E013009
:101DA200F8007808F907D52EF31FD82ED92EC72EA2
:101DB200DB2EDB2E73087702031DE92E72087602F2
:101DC200031DE92E71087502031DE92E70087402C5
:101DD200031CEC2EED2EFC2E7008F4027108031C7D
:101DE200710FF5027208031C720FF6027308031CCE
:101DF200730FF702FC2E01300310F30CF20CF10CFE
:101E0200F00CFF3E031DFD2E0130F902031D0A2FC7
:101E12000B2FDB2E0D2F0D2F7708F3007608F20023
:101E22007508F1007408F000162F08000030FC005D
:101E32000030FB000030FA000030F9007308720431
:101E4200710470040319262F272F7B2FFD01031421
:101E5200FD0D392F0130F8000310F00DF10DF20DD8
:101E6200F30DF80B2D2F0130F8007808FD07392FFC
:101E7200F31F3C2F3D2F2B2F3F2F3F2F0130F80018
:101E82000310F90DFA0DFB0DFC0DF80B412F730831
:101E92007702031D562F72087602031D562F710812
:101EA2007502031D562F70087402031C592F5A2FF6
:101EB2006A2F7008F4027108031C710FF502720890
:101EC200031C720FF6027308031C730FF7027914D6
:101ED2006A2F01300310F30CF20CF10CF00CFF3EF0
:101EE200031D6B2F0130FD02031D782F792F3F2F29
:101EF2007B2F7B2F7C08F3007B08F2007A08F1002D
:101F02007908F000842F08007308031D892F912F90
:101F1200720871047004031D8F2F902FA72F912F29
:101F22000030F0000030F1000030F200FF2FFF2FF0
:101F3200A72F0130F5007508F30701300310F20CEA
:101F4200F10CF00CFF3E031D9F2FA72FFE307205F0
:101F5200031DAC2FAD2F9A2FC52FC52F0130F500D1
:101F62007508F3070130F007003003180130F1075C
:101F7200003003180130F20701300310F20CF10CAB
:101F8200F00CFF3E031DBE2FFF307205031DCA2F4A
:101F9200CB2FAF2FD82FD82F0130F30201300310EF
:101FA200F00DF10DF20DFF3E031DD02FD82FF11FC2
:101FB200DB2FDC2FCD2F7318DF2FE02FE62FFF3022
:101FC200F0057F30F105FF30F2050310F30C7308C2
:101FD200F500F601F70110300310F50DF60DF70DBF
:101FE200FF3E031DED2F7508F0047608F104770813
:0E1FF200F2047408031DFE2FFF2FF2170800E3
:02400E00323F3F
:00000001FF
