:100000000A128A15D32AF400132874088400831373
:1000100000080A128A15FE220A128A110130F30022
:100020007308F40713287408840083138008031DE1
:100030001A281B2805281C28080078088312031397
:10004000A0007908A1007A08A2000310210D220D5A
:10005000A3002308A900A908031D2F2830283A2847
:100060000030FB000030FA000030F9000030F800EA
:10007000C228C2287808A0007908A1007A08A20046
:1000800017300310A20CA10CA00CFF3E031D412849
:100090002008A3002308A400F917FF30F805FF305B
:1000A000F9050030FA057808A5007908A6007A0855
:1000B000A700A8018E30A902A91F5F286028852803
:1000C0002908803A8F3E0318662867287228003076
:1000D000FB000030FA000030F9000030F800C228C0
:1000E000C228722801300310A80CA70CA60CA50C7E
:1000F000FF3E031D73280130A0002008A907031D3F
:10010000822883287228A928A92818302902031CCC
:100110008A288B28A2280030FB000030FA0000302B
:10012000F9000030F800C228C228A2280130A0003F
:100130000310A50DA60DA70DA80DA00B9828013042
:10014000A902A228A908031DA628A7289628A9283D
:10015000A9282408031DAD28B928A509A609A709BF
:10016000A809A50A0319A60A0319A70A0319A80AC8
:10017000B9282808FB002708FA002608F9002508F6
:10018000F800C2280800831203132D08B3002E08BC
:10019000B4002F08B5000310340D350DB600360835
:1001A000B700B708031DD528D628DE280030AD00DB
:1001B0000030AE000030AF00B029B0293008B300E5
:1001C0003108B4003208B5000310340D350DB60007
:1001D0003608BC00BC08031DEE28EF28F7280030C5
:1001E000AD000030AE000030AF00B029B0293C08AF
:1001F0007B3EB3003308B7072D08B3002E08B400C8
:100200002F08B50010300310B50CB40CB30CFF3E32
:10021000031D03293308B6003608BC003008B300BC
:100220003108B4003208B50010300310B50CB40C1E
:10023000B30CFF3E031D15293308B6003608BC0673
:100240008030B3003308BC05AE17B117FF30B005DE
:10025000FF30B1050030B2050030B8000030B90001
:100260000030BA000730B3003308BB0037292D1C1B
:100270003A293B294C293008B807310803110318E3
:10028000310A03194429B907320803110318320A45
:1002900003194B29BA074C2901300310AF0CAE0CDF
:1002A000AD0CFF3E031D4D2901300310B00DB10D03
:1002B000B20DFF3E031D55290130BB02031D61290C
:1002C0006229372963290930B3003308BB00682944
:1002D0002D1C6B296C297D293008B80731080311C2
:1002E0000318310A03197529B907320803110318D5
:1002F000320A03197C29BA077D2901300310AF0C9B
:10030000AE0CAD0CFF3E031D7E2901300310BA0C6C
:10031000B90CB80CFF3E031D86290130BB02031D3A
:1003200092299329682994293808F0003908F100A6
:100330003A08F2003708B3003308F3003C08B40071
:100340003408F4000A128A1504250A128A1170086A
:1003500083120313AD007108AE007208AF00B0291C
:10036000080083120313B6002130AD002D08B2003F
:10037000082C3A08253A0319BE29BF29CB293A0887
:10038000AD00360884002D08831380000130AD00D5
:100390002D08B607082CB401B501B301D729D72918
:1003A00033150130AD002D08A007D729E429200816
:1003B00084000A128A1500200A128A11303A0319A1
:1003C000D029E429E429D729200884000A128A15B3
:1003D00000200A128A110A128A15A9220A128A1109
:1003E000031CF329F429AE2A83120313B401B501C7
:1003F000F92983120313200884000A128A150020A9
:100400000A128A11AD00AE013508F101F107340876
:10041000F001F0070A30F2000030F3000A128A15EA
:100420007E230A128A11831203132D087007AF006E
:100430002E0803182E0A7107B0002F08D03EB40012
:1004400030080318013EFF3EB5000130AD002D0815
:10045000A007200884000A128A1500200A128A11B7
:100460000A128A15A9220A128A110318382A392A6F
:10047000F929AE2AAE2AAE2A1C2CC82AC82A831211
:10048000031335083902031D472A340838020318BC
:100490004A2A4B2A522A3808B4023908031CB503E9
:1004A000B502622AB401B501622A622A2030AD0089
:1004B000360884002D08831380000130AD002D081C
:1004C000B607622AFF30B4070318B50AFF30B50734
:1004D000FF303506031D6E2AFF303406031D712AD6
:1004E000722A562A862A862A37088400831300082F
:1004F000AD00360884002D0880000130AD002D08C5
:10050000B7070130AD002D08B607862A0130B802C2
:100510000030031CB903B902FF303906031D922ACB
:10052000FF303806031D952A962A742A082C082CB9
:100530003208840083130008AD002D08BA00023091
:10054000AD002D08B207A42A3A30AD002D08B7003F
:100550000130B8000030B9003F2AC82A01308312A8
:100560000313A007FF30200784000A128A15002019
:100570000A128A11BA00003A03191C2C633A0319B3
:10058000982A073A0319C82A0D3A0319C82AA42A37
:10059000831203133208840083130008B700840A0F
:1005A0000008B8000230AD002D08B207B81FD92AE4
:1005B000DA2AE42A0330AD002D08B304B709B809DC
:1005C000B70A0319B80AE42ABA010314BA0D3A08A3
:1005D000053A031DEC2AED2AEF2A172B172B3A08B0
:1005E000AD002D07013E84000A128A1500200A1270
:1005F0008A11AE000A128A1500200A128A11AF0071
:100600002F083802031D062B2E0837020318092B6A
:100610000A2B0C2B172B172B0130AD002D08BA0716
:100620003A08053A031D152B162BEF2A172B350810
:10063000340403191C2B1D2B292B330803390319F0
:10064000222B232B292BFF30B4070318B50AFF30C8
:10065000B5073A08AD00AE01AD1BAE032E08803AD7
:10066000AF003508803A2F02031D382B34082D02C5
:1006700003183B2B3C2B4A2B831203133A08AD0083
:10068000AE01AD1BAE032D08B4022E08031CB5034A
:10069000B5024F2B83120313B401B5014F2B331D49
:1006A000522B532B862B330803390319582B592B04
:1006B000652B2D30AD00360884002D088313800093
:1006C0000130AD002D08B607652B35083404031939
:1006D0006A2B6B2BB92B6C2B3030AD0036088400A5
:1006E0002D08831380000130AD002D08B607FF30C0
:1006F000B4070318B50AFF30B50735083404031DE5
:10070000822B832B6C2BB92BB92BB92B35083404D6
:1007100003198B2B8C2BA62B8D2B2030AD0036088C
:1007200084002D08831380000130AD002D08B6072A
:10073000FF30B4070318B50AFF30B5073508340495
:10074000031DA32BA42B8D2BA62BA62B330803391B
:100750000319AB2BAC2BB92B2D30AD003608840020
:100760002D08831380000130AD002D08B607B92B8A
:10077000B92B3A08AD002D08B100FC2B0A30F80067
:100780000030F9003108AD002D07013E84000A1247
:100790008A1500200A128A11F0000A128A15002018
:1007A0000A128A11F1003808F301F3073708F20141
:1007B000F2070A128A15EC230A128A117108FB014A
:1007C000FB077008FA01FA070A128A15A8230A1211
:1007D0008A117808303E83120313AE002E08BA0047
:1007E0003A08AD00360884002D08831380000130DC
:1007F000AD002D08B607FC2BFF30AD002D08B1076A
:100800003108FF3A031D052C062CBE2B082C082CA2
:100810000130A007FF30200784000A128A1500204B
:100820000A128A11AD002D08BA00BA08031D192C4E
:100830001A2CB9291C2C1C2C831203133608840093
:1008400083138001232C0800831203139E01831657
:1008500003139E01C0309F00FF3085008601870191
:1008600088018312031385018601870101300A1272
:100870008A15BE220A128A1102300A128A15BE2275
:100880000A128A1106300A128A15BE220A128A1129
:100890000C300A128A15BE220A128A1138300A1246
:1008A0008A15BE220A128A118316031307178717A7
:1008B0008130990018151812181398168312031313
:1008C000181318169817642C00300A128A15612321
:1008D0000A128A114C300A128A152D230A128A1123
:1008E00049300A128A152D230A128A1147300A123A
:1008F0008A152D230A128A1148300A128A152D23CF
:100900000A128A1154300A128A152D230A128A11EA
:100910003D300A128A152D230A128A1114300A1248
:100920008A1561230A128A1154300A128A152D235E
:100930000A128A1145300A128A152D230A128A11C9
:100940004D300A128A152D230A128A1150300A12CC
:100950008A152D230A128A113D300A128A152D2379
:100960000A128A11E8300A128A1561230A128A11C2
:1009700056300A128A152D230A128A114F300A1294
:100980008A152D230A128A114C300A128A152D233A
:100990000A128A1154300A128A152D230A128A115A
:1009A00041300A128A152D230A128A1147300A1281
:1009B0008A152D230A128A1145300A128A152D2311
:1009C0000A128A113D300A128A152D230A128A1141
:1009D00028300A128A1561230A128A1143300A123A
:1009E0008A152D230A128A1155300A128A152D23D1
:1009F0000A128A1152300A128A152D230A128A11FC
:100A000052300A128A152D230A128A1145300A1211
:100A10008A152D230A128A114E300A128A152D23A7
:100A20000A128A1154300A128A152D230A128A11C9
:100A30003D300A128A152D230A128A111F2D81308A
:100A4000831203139F0008300A128A1561230A12C9
:100A50008A110A128A157F250A128A110A128A152A
:100A600099220A128A11710883120313C901C90756
:100A70007008C801C8070A30F0000030F1004908CA
:100A8000F301F3074808F201F2070A128A15EC2372
:100A90000A128A11700883120313A0007108A100C2
:100AA000A201A3010A128A1502260A128A112E3007
:100AB0000A128A152D230A128A110A30F800003012
:100AC000F900831203134908FB01FB074808FA01E8
:100AD000FA070A128A15A8230A128A1178088312C3
:100AE0000313A0007908A100A201A3010A128A152C
:100AF00002260A128A118930831203139F001C30C8
:100B00000A128A1561230A128A110A128A157F2590
:100B10000A128A110A128A1599220A128A11710878
:100B200083120313CD01CD077008CC01CC074D080B
:100B3000AB01AB074C08AA01AA070A128A15462383
:100B40000A128A11831203132A08B0002B08B1007D
:100B50002C08B2003F30AD00FA30AE003E30AF009E
:100B60000A128A11C3200A128A11831203132D0854
:100B7000F8002E08F9002F08FA000A128A111D2029
:100B80000A128A11790883120313CD01CD07780860
:100B9000CC01CC074C08A0004D08A100A201A30184
:100BA0000A128A1502260A128A11DF300A128A15E1
:100BB0002D230A128A1143300A128A152D230A1294
:100BC0008A1120300A128A152D230A128A11203028
:100BD0000A128A152D230A128A1100308312031378
:100BE0004D02293003194C02031CF72DF82DFA2D64
:100BF0000614FC2D0610FC2D91309F00F0300A12D7
:100C00008A1561230A128A110A128A157F250A128F
:100C10008A110A128A1599220A128A1171088312FE
:100C20000313CF01CF077008CE01CE074F08AB01E9
:100C3000AB074E08AA01AA070A128A1546230A1210
:100C40008A11831203132A08B0002B08B1002C0864
:100C5000B200C530AD009A30AE004030AF000A128D
:100C60008A11C3200A128A11831203132D08F80077
:100C70002E08F9002F08FA000A128A111D200A1204
:100C80008A11790883120313CF01CF077808CE01A8
:100C9000CE070A30F0000030F1004F08F301F307EF
:100CA0004E08F201F2070A128A15EC230A128A1181
:100CB000700883120313A0007108A100A201A30110
:100CC0000A128A1502260A128A112E300A128A1571
:100CD0002D230A128A110A30F8000030F90083121D
:100CE00003134F08FB01FB074E08FA01FA070A122B
:100CF0008A15A8230A128A11780883120313A00008
:100D00007908A100A201A3010A128A1502260A127B
:100D10008A1120300A128A152D230A128A115630A0
:100D20000A128A152D230A128A1120300A128A15F6
:100D30002D230A128A119930831203139F00303039
:100D40000A128A1561230A128A110A128A157F254E
:100D50000A128A110A128A1599220A128A11710836
:100D600083120313C501C5077008C401C40703300B
:100D7000F0000030F1004508F301F3074408F201E8
:100D8000F2070A128A15EC230A128A1171088312DB
:100D90000313C501C5077008C401C4070A30F00079
:100DA0000030F1004508F301F3074408F201F207AF
:100DB0000A128A15EC230A128A117008831203138F
:100DC000A0007108A100A201A3010A128A1502263F
:100DD0000A128A112E300A128A152D230A128A113C
:100DE0000A30F8000030F900831203134508FB01B4
:100DF000FB074408FA01FA070A128A15A8230A1207
:100E00008A11780883120313A0007908A100A201B7
:100E1000A3010A128A1502260A128A1120300A1228
:100E20008A152D230A128A1141300A128A152D23A0
:100E30000A128A1120300A128A152D230A128A11E9
:100E400033300A128A1561230A128A1120300A12DD
:100E50008A152D230A128A1120300A128A152D2391
:100E60000A128A1150300A128A152D230A128A1189
:100E70003D300A128A152D230A128A118312031398
:100E80004F08F101F1074E08F001F0074508F301A2
:100E9000F3074408F201F2070A128A157E230A12A8
:100EA0008A11710883120313C301C3077008C201BA
:100EB000C2076430F0000030F1004308F301F3078B
:100EC0004208F201F2070A128A15EC230A128A116B
:100ED000700883120313A0007108A100A201A301EE
:100EE0000A128A1502260A128A112E300A128A154F
:100EF0002D230A128A110A30F8000030F9008312FB
:100F000003134508FB01FB074408FA01FA070A121C
:100F10008A15A8230A128A11780883120313A000E5
:100F20007908A100A201A3010A128A1502260A1259
:100F30008A110A30F0000030F100831203134908CF
:100F4000F301F3074808F201F2070A128A15EC23AD
:100F50000A128A11710883120313BF01BF077008B8
:100F6000BE01BE070A30F0000030F1004508F30171
:100F7000F3074408F201F2070A128A15EC230A1259
:100F80008A11710883120313C101C1077008C001DF
:100F9000C0070B30BD003D08A0003F08A201A2071A
:100FA0003E08A101A1074D08A401A4074C08A30114
:100FB000A3074F08A601A6074E08A501A5074108EB
:100FC000A801A8074008A701A7070A30A900003018
:100FD000AA000D30AB000030AC00A0300A128A111C
:100FE000B1210A128A11A0300A128A1103200A12B2
:100FF0008A111F2D1F2D642C642C0A128A110028BF
:1010000008308A000408840A82070034013400345E
:101010000A34003464340034E834033410342734A0
:101020005434253430343534643456342534303433
:1010300035346434433425343034353464344C34FA
:101040002534303435346434253463342534633402
:0210500000346A
:1015220064008001840A0406031900340406922A26
:10153200831203135408F301F3075308F201F2076D
:101542007308F101F1077208F001F007A82A0800F8
:10155200F100F0013A3071020318B02AB12ABB2A15
:1015620030307102031CB62AB72ABB2AF0010314D9
:10157200F00DBB2A700CBD2A0800F200831203137F
:10158200061272088800F430F0000130F1000A12ED
:101592008A15E8220A128A150A128A1514230A12D7
:1015A2008A15080083134230840055300A128A15C6
:1015B20091220A128A15A0308400C8300A128A15B4
:1015C20091220A128A1583010A128A11242C7108A7
:1015D2007004031DED2AEE2AF02AFD2AFD2A0130AD
:1015E200F0020030031CF103F10271087004031DC4
:1015F200FB2AFC2AF02AFD2A0800F200012B6400D3
:10160200831203130C1E062B072B002B082B7208C8
:1016120099003C30F0000030F1000A128A15E822ED
:101622000A128A150800831203138616F430F0009A
:101632000130F1000A128A15E8220A128A15831271
:1016420003138612F430F0000130F1000A128A15F9
:10165200E8220A128A150800F20083120313061602
:10166200720888007208880072088800F430F0005E
:101672000130F1000A128A15E8220A128A150A12AA
:101682008A1514230A128A150800831203132A08E2
:10169200F0002B08F100F2018E30FC007C08F30010
:1016A200F4010A128A1504250A128A157008831297
:1016B2000313AA007108AB007208AC00602B08008B
:1016C200F400103074020318672B682B702B740817
:1016D200803E0A128A15BE220A128A157D2B7408D0
:1016E200EC3EF3007308F4007408C03E0A128A1537
:1016F200BE220A128A157D2B0800F401F501812B06
:10170200701C842B852B8B2B7208F4070318F50AA7
:101712007308F50701300310F20DF30DFF3E031DB0
:101722008C2B01300310F10CF00CFF3E031D932BA8
:1017320071087004031D9E2B9F2B812BA02B750813
:10174200F101F1077408F001F007A72B08007908EE
:1017520078040319AD2BAE2BE42BFD010314FD0D10
:10176200BE2B01300310F80DF90DFF3E031DB32B04
:101772000130FC007C08FD07BE2BF91FC12BC22BD8
:10178200B22BC42BC42B79087B02031DCA2B780809
:101792007A02031CCD2BCE2BD52B7808FA027908BE
:1017A200031CFB03FB02D52B01300310F90CF80CD0
:1017B200FF3E031DD62B0130FD02031DE12BE22B60
:1017C200C42BE42BE42B7B08F901F9077A08F80112
:1017D200F807EB2B0800F501F601710870040319F4
:1017E200F32BF42B322CF7010314F70D042C0130E8
:1017F2000310F00DF10DFF3E031DF92B0130F40033
:101802007408F707042CF11F072C082CF82B0A2C5C
:101812000A2C01300310F50DF60DFF3E031D0B2CB3
:1018220071087302031D172C70087202031C1A2C14
:101832001B2C232C7008F2027108031CF303F30221
:101842007514232C01300310F10CF00CFF3E031D24
:10185200242C0130F702031D2F2C302C0A2C322CA1
:10186200322C7608F101F1077508F001F007392CE6
:10187200080073087204710470040319412C422C8D
:101882008C2CF9010314F90D542C0130F8000310CB
:10189200F00DF10DF20DF30DF80B482C0130F800AC
:1018A2007808F907542CF31F572C582C462C5A2C25
:1018B2005A2C73087702031D682C72087602031DE6
:1018C200682C71087502031D682C70087402031CD1
:1018D2006B2C6C2C7B2C7008F4027108031C710FAA
:1018E200F5027208031C720FF6027308031C730FD1
:1018F200F7027B2C01300310F30CF20CF10CF00C0C
:10190200FF3E031D7C2C0130F902031D892C8A2C19
:101912005A2C8C2C8C2C7708F3007608F200750870
:10192200F1007408F000952C08000030FC00003033
:10193200FB000030FA000030F900730872047104F1
:1019420070040319A52CA62CFA2CFD010314FD0D1D
:10195200B82C0130F8000310F00DF10DF20DF30D6B
:10196200F80BAC2C0130F8007808FD07B82CF31FF7
:10197200BB2CBC2CAA2CBE2CBE2C0130F8000310B0
:10198200F90DFA0DFB0DFC0DF80BC02C7308770254
:10199200031DD52C72087602031DD52C7108750221
:1019A200031DD52C70087402031CD82CD92CE92CE9
:1019B2007008F4027108031C710FF5027208031C0F
:1019C200720FF6027308031C730FF7027914E92CE5
:1019D20001300310F30CF20CF10CF00CFF3E031D6E
:1019E200EA2C0130FD02031DF72CF82CBE2CFA2C38
:1019F200FA2C7C08F3007B08F2007A08F1007908DF
:101A0200F000032D08007308031D082D102D720825
:101A120071047004031D0E2D0F2D262D102D003084
:101A2200F0000030F1000030F2007E2D7E2D262DD8
:101A32000130F5007508F30701300310F20CF10CC8
:101A4200F00CFF3E031D1E2D262DFE307205031DD8
:101A52002B2D2C2D192D442D442D0130F500750808
:101A6200F3070130F007003003180130F1070030AE
:101A720003180130F20701300310F20CF10CF00CE4
:101A8200FF3E031D3D2DFF307205031D492D4A2DDA
:101A92002E2D572D572D0130F30201300310F00D7A
:101AA200F10DF20DFF3E031D4F2D572DF11F5A2D43
:101AB2005B2D4C2D73185E2D5F2D652DFF30F005CB
:101AC2007F30F105FF30F2050310F30C7308F500C7
:101AD200F601F70110300310F50DF60DF70DFF3E7C
:101AE200031D6C2D7508F0047608F1047708F204E2
:101AF2007408031D7D2D7E2DF2170800003083121D
:101B02000313A7000030A6000030A5000030A40097
:101B1200D030A8000730A90029082804031D922DFF
:101B2200932D952DE42DE42D1F15972D1F199A2D18
:101B32009B2D972D9C2D1E08A000A1012008D300EB
:101B42002108D4005308A100A0012008D3002108D5
:101B5200D400831603131E0883120313A000A101ED
:101B62005308A300A20120082204D3002108230461
:101B7200D4005308A0005408A100A201A301200828
:101B8200A407210803110318013E0319C92DA50753
:101B9200220803110318013E0319D02DA6072308BA
:101BA20003110318013E0319D72DA7070130A8021C
:101BB2000030031CA903A90229082804031DE22DF1
:101BC200E32D952DE42D0030F3000030F2000730B4
:101BD200F100D030F0002708F7002608F6002508AB
:101BE200F5002408F4000A128A1596240A128A15AE
:101BF200710883120313D401D4077008D301D307E9
:101C020008000030F3000130F2008630F100A0300D
:101C1200F000831203132308F7002208F6002108BC
:101C2200F5002008F4000A128A1596240A128A1571
:101C3200700883120313A4002408A5000030F300E7
:101C42000130F2008630F100A030F0002308F700E6
:101C52002208F6002108F5002008F4000A128A156D
:101C62003A240A128A15730883120313A300720816
:101C7200A2007108A1007008A0000030F30000303B
:101C8200F2002730F1001030F0002308F70022089C
:101C9200F6002108F5002008F4000A128A1596249D
:101CA2000A128A15700883120313A4002408A600DE
:101CB2000030F3000030F2002730F1001030F00065
:101CC2002308F7002208F6002108F5002008F40096
:101CD2000A128A153A240A128A1573088312031308
:101CE200A3007208A2007108A1007008A0000030D1
:101CF200F3000030F2000330F100E830F000230876
:101D0200F7002208F6002108F5002008F4000A1264
:101D12008A1596240A128A15700883120313A400E6
:101D22002408A7000030F3000030F2000330F10075
:101D3200E830F0002308F7002208F6002108F50039
:101D42002008F4000A128A153A240A128A15730826
:101D520083120313A3007208A2007108A100700885
:101D6200A0000030F3000030F2000030F1006430D7
:101D7200F0002308F7002208F6002108F5002008E9
:101D8200F4000A128A1596240A128A157008831220
:101D92000313A4002408A8000030F3000030F2006E
:101DA2000030F1006430F0002308F7002208F6004A
:101DB2002108F5002008F4000A128A153A240A12B2
:101DC2008A15730883120313A3007208A200710814
:101DD200A1007008A0000030F3000030F2000030D3
:101DE200F1000A30F0002308F7002208F60021086B
:101DF200F5002008F4000A128A1596240A128A15A0
:101E0200700883120313A4002408A9000030F30011
:101E12000030F2000030F1000A30F0002308F70031
:101E22002208F6002108F5002008F4000A128A159B
:101E32003A240A128A15730883120313A300720844
:101E4200A2007108A1007008A0002508031D2A2F16
:101E52005F2F2508303E0A128A152D230A128A1591
:101E6200831203132608303E0A128A152D230A1202
:101E72008A15831203132708303E0A128A152D236E
:101E82000A128A15831203132808303E0A128A1591
:101E92002D230A128A15831203132908303E0A12CF
:101EA2008A152D230A128A15831203132008303E45
:101EB2000A128A152D230A128A15FF2F8312031381
:101EC2002608031D652F912F2608303E0A128A1517
:101ED2002D230A128A15831203132708303E0A1291
:101EE2008A152D230A128A15831203132808303EFD
:101EF2000A128A152D230A128A158312031329083E
:101F0200303E0A128A152D230A128A1583120313F0
:101F12002008303E0A128A152D230A128A15FF2F35
:101F2200831203132708031D972FBA2F2708303E69
:101F32000A128A152D230A128A15831203132808FE
:101F4200303E0A128A152D230A128A1583120313B0
:101F52002908303E0A128A152D230A128A15831285
:101F620003132008303E0A128A152D230A128A15FD
:101F7200FF2F831203132808031DC02FDA2F28080E
:101F8200303E0A128A152D230A128A158312031370
:101F92002908303E0A128A152D230A128A15831245
:101FA20003132008303E0A128A152D230A128A15BD
:101FB200FF2F831203132908031DE02FF12F290895
:101FC200303E0A128A152D230A128A158312031330
:101FD2002008303E0A128A152D230A128A15FF2F75
:101FE200831203132008303E0A128A152D230A1287
:0E1FF2008A15FF2FFF2FFF2FFF2FFF2F080054
:02400E00323F3F
:00000001FF
